{
	"remix code/index.sol": {
		"StudentManager": {
			"abi": [
				{
					"inputs": [
						{
							"internalType": "uint256",
							"name": "_id",
							"type": "uint256"
						},
						{
							"internalType": "string",
							"name": "_name",
							"type": "string"
						},
						{
							"internalType": "uint256",
							"name": "_age",
							"type": "uint256"
						},
						{
							"internalType": "string",
							"name": "_department",
							"type": "string"
						}
					],
					"name": "addStudent",
					"outputs": [],
					"stateMutability": "nonpayable",
					"type": "function"
				},
				{
					"inputs": [
						{
							"internalType": "uint256",
							"name": "_id",
							"type": "uint256"
						}
					],
					"name": "getStudent",
					"outputs": [
						{
							"internalType": "uint256",
							"name": "",
							"type": "uint256"
						},
						{
							"internalType": "string",
							"name": "",
							"type": "string"
						},
						{
							"internalType": "uint256",
							"name": "",
							"type": "uint256"
						},
						{
							"internalType": "string",
							"name": "",
							"type": "string"
						}
					],
					"stateMutability": "view",
					"type": "function"
				},
				{
					"inputs": [
						{
							"internalType": "uint256",
							"name": "_id",
							"type": "uint256"
						},
						{
							"internalType": "string",
							"name": "_name",
							"type": "string"
						},
						{
							"internalType": "uint256",
							"name": "_age",
							"type": "uint256"
						},
						{
							"internalType": "string",
							"name": "_department",
							"type": "string"
						}
					],
					"name": "updateStudent",
					"outputs": [],
					"stateMutability": "nonpayable",
					"type": "function"
				}
			],
			"devdoc": {
				"kind": "dev",
				"methods": {},
				"version": 1
			},
			"evm": {
				"assembly": "    /* \"remix code/index.sol\":60:1426  contract StudentManager {... */\n  mstore(0x40, 0x80)\n  callvalue\n  dup1\n  iszero\n  tag_1\n  jumpi\n  revert(0x00, 0x00)\ntag_1:\n  pop\n  dataSize(sub_0)\n  dup1\n  dataOffset(sub_0)\n  0x00\n  codecopy\n  0x00\n  return\nstop\n\nsub_0: assembly {\n        /* \"remix code/index.sol\":60:1426  contract StudentManager {... */\n      mstore(0x40, 0x80)\n      callvalue\n      dup1\n      iszero\n      tag_1\n      jumpi\n      revert(0x00, 0x00)\n    tag_1:\n      pop\n      jumpi(tag_2, lt(calldatasize, 0x04))\n      shr(0xe0, calldataload(0x00))\n      dup1\n      0x5900fe9f\n      eq\n      tag_3\n      jumpi\n      dup1\n      0x642f9163\n      eq\n      tag_4\n      jumpi\n      dup1\n      0xc11e15e4\n      eq\n      tag_5\n      jumpi\n    tag_2:\n      revert(0x00, 0x00)\n        /* \"remix code/index.sol\":283:646  function addStudent(... */\n    tag_3:\n      tag_6\n      0x04\n      dup1\n      calldatasize\n      sub\n      dup2\n      add\n      swap1\n      tag_7\n      swap2\n      swap1\n      tag_8\n      jump\t// in\n    tag_7:\n      tag_9\n      jump\t// in\n    tag_6:\n      stop\n        /* \"remix code/index.sol\":1033:1423  function getStudent(uint _id)... */\n    tag_4:\n      tag_10\n      0x04\n      dup1\n      calldatasize\n      sub\n      dup2\n      add\n      swap1\n      tag_11\n      swap2\n      swap1\n      tag_12\n      jump\t// in\n    tag_11:\n      tag_13\n      jump\t// in\n    tag_10:\n      mload(0x40)\n      tag_14\n      swap5\n      swap4\n      swap3\n      swap2\n      swap1\n      tag_15\n      jump\t// in\n    tag_14:\n      mload(0x40)\n      dup1\n      swap2\n      sub\n      swap1\n      return\n        /* \"remix code/index.sol\":654:1025  function updateStudent(... */\n    tag_5:\n      tag_16\n      0x04\n      dup1\n      calldatasize\n      sub\n      dup2\n      add\n      swap1\n      tag_17\n      swap2\n      swap1\n      tag_8\n      jump\t// in\n    tag_17:\n      tag_18\n      jump\t// in\n    tag_16:\n      stop\n        /* \"remix code/index.sol\":283:646  function addStudent(... */\n    tag_9:\n        /* \"remix code/index.sol\":442:450  students */\n      0x00\n        /* \"remix code/index.sol\":442:455  students[_id] */\n      0x00\n        /* \"remix code/index.sol\":451:454  _id */\n      dup6\n        /* \"remix code/index.sol\":442:455  students[_id] */\n      dup2\n      mstore\n      0x20\n      add\n      swap1\n      dup2\n      mstore\n      0x20\n      add\n      0x00\n      keccak256\n        /* \"remix code/index.sol\":442:462  students[_id].exists */\n      0x04\n      add\n      0x00\n      swap1\n      sload\n      swap1\n      0x0100\n      exp\n      swap1\n      div\n      0xff\n      and\n        /* \"remix code/index.sol\":441:462  !students[_id].exists */\n      iszero\n        /* \"remix code/index.sol\":433:489  require(!students[_id].exists, \"Student already exists\") */\n      tag_20\n      jumpi\n      mload(0x40)\n      0x08c379a000000000000000000000000000000000000000000000000000000000\n      dup2\n      mstore\n      0x04\n      add\n      tag_21\n      swap1\n      tag_22\n      jump\t// in\n    tag_21:\n      mload(0x40)\n      dup1\n      swap2\n      sub\n      swap1\n      revert\n    tag_20:\n        /* \"remix code/index.sol\":518:638  Student(... */\n      mload(0x40)\n      dup1\n      0xa0\n      add\n      0x40\n      mstore\n      dup1\n        /* \"remix code/index.sol\":540:543  _id */\n      dup6\n        /* \"remix code/index.sol\":518:638  Student(... */\n      dup2\n      mstore\n      0x20\n      add\n        /* \"remix code/index.sol\":558:563  _name */\n      dup5\n        /* \"remix code/index.sol\":518:638  Student(... */\n      dup2\n      mstore\n      0x20\n      add\n        /* \"remix code/index.sol\":578:582  _age */\n      dup4\n        /* \"remix code/index.sol\":518:638  Student(... */\n      dup2\n      mstore\n      0x20\n      add\n        /* \"remix code/index.sol\":597:608  _department */\n      dup3\n        /* \"remix code/index.sol\":518:638  Student(... */\n      dup2\n      mstore\n      0x20\n      add\n        /* \"remix code/index.sol\":623:627  true */\n      0x01\n        /* \"remix code/index.sol\":518:638  Student(... */\n      iszero\n      iszero\n      dup2\n      mstore\n      pop\n        /* \"remix code/index.sol\":502:510  students */\n      0x00\n        /* \"remix code/index.sol\":502:515  students[_id] */\n      0x00\n        /* \"remix code/index.sol\":511:514  _id */\n      dup7\n        /* \"remix code/index.sol\":502:515  students[_id] */\n      dup2\n      mstore\n      0x20\n      add\n      swap1\n      dup2\n      mstore\n      0x20\n      add\n      0x00\n      keccak256\n        /* \"remix code/index.sol\":502:638  students[_id] = Student(... */\n      0x00\n      dup3\n      add\n      mload\n      dup2\n      0x00\n      add\n      sstore\n      0x20\n      dup3\n      add\n      mload\n      dup2\n      0x01\n      add\n      swap1\n      dup2\n      tag_23\n      swap2\n      swap1\n      tag_24\n      jump\t// in\n    tag_23:\n      pop\n      0x40\n      dup3\n      add\n      mload\n      dup2\n      0x02\n      add\n      sstore\n      0x60\n      dup3\n      add\n      mload\n      dup2\n      0x03\n      add\n      swap1\n      dup2\n      tag_25\n      swap2\n      swap1\n      tag_24\n      jump\t// in\n    tag_25:\n      pop\n      0x80\n      dup3\n      add\n      mload\n      dup2\n      0x04\n      add\n      exp(0x0100, 0x00)\n      dup2\n      sload\n      dup2\n      0xff\n      mul\n      not\n      and\n      swap1\n      dup4\n      iszero\n      iszero\n      mul\n      or\n      swap1\n      sstore\n      pop\n      swap1\n      pop\n      pop\n        /* \"remix code/index.sol\":283:646  function addStudent(... */\n      pop\n      pop\n      pop\n      pop\n      jump\t// out\n        /* \"remix code/index.sol\":1033:1423  function getStudent(uint _id)... */\n    tag_13:\n        /* \"remix code/index.sol\":1111:1115  uint */\n      0x00\n        /* \"remix code/index.sol\":1117:1130  string memory */\n      0x60\n        /* \"remix code/index.sol\":1132:1136  uint */\n      0x00\n        /* \"remix code/index.sol\":1138:1151  string memory */\n      0x60\n        /* \"remix code/index.sol\":1177:1185  students */\n      0x00\n        /* \"remix code/index.sol\":1177:1190  students[_id] */\n      0x00\n        /* \"remix code/index.sol\":1186:1189  _id */\n      dup7\n        /* \"remix code/index.sol\":1177:1190  students[_id] */\n      dup2\n      mstore\n      0x20\n      add\n      swap1\n      dup2\n      mstore\n      0x20\n      add\n      0x00\n      keccak256\n        /* \"remix code/index.sol\":1177:1197  students[_id].exists */\n      0x04\n      add\n      0x00\n      swap1\n      sload\n      swap1\n      0x0100\n      exp\n      swap1\n      div\n      0xff\n      and\n        /* \"remix code/index.sol\":1169:1224  require(students[_id].exists, \"Student does not exist\") */\n      tag_27\n      jumpi\n      mload(0x40)\n      0x08c379a000000000000000000000000000000000000000000000000000000000\n      dup2\n      mstore\n      0x04\n      add\n      tag_28\n      swap1\n      tag_29\n      jump\t// in\n    tag_28:\n      mload(0x40)\n      dup1\n      swap2\n      sub\n      swap1\n      revert\n    tag_27:\n        /* \"remix code/index.sol\":1237:1259  Student memory student */\n      0x00\n        /* \"remix code/index.sol\":1262:1270  students */\n      0x00\n        /* \"remix code/index.sol\":1262:1275  students[_id] */\n      0x00\n        /* \"remix code/index.sol\":1271:1274  _id */\n      dup8\n        /* \"remix code/index.sol\":1262:1275  students[_id] */\n      dup2\n      mstore\n      0x20\n      add\n      swap1\n      dup2\n      mstore\n      0x20\n      add\n      0x00\n      keccak256\n        /* \"remix code/index.sol\":1237:1275  Student memory student = students[_id] */\n      mload(0x40)\n      dup1\n      0xa0\n      add\n      0x40\n      mstore\n      swap1\n      dup2\n      0x00\n      dup3\n      add\n      sload\n      dup2\n      mstore\n      0x20\n      add\n      0x01\n      dup3\n      add\n      dup1\n      sload\n      tag_30\n      swap1\n      tag_31\n      jump\t// in\n    tag_30:\n      dup1\n      0x1f\n      add\n      0x20\n      dup1\n      swap2\n      div\n      mul\n      0x20\n      add\n      mload(0x40)\n      swap1\n      dup2\n      add\n      0x40\n      mstore\n      dup1\n      swap3\n      swap2\n      swap1\n      dup2\n      dup2\n      mstore\n      0x20\n      add\n      dup3\n      dup1\n      sload\n      tag_32\n      swap1\n      tag_31\n      jump\t// in\n    tag_32:\n      dup1\n      iszero\n      tag_33\n      jumpi\n      dup1\n      0x1f\n      lt\n      tag_34\n      jumpi\n      0x0100\n      dup1\n      dup4\n      sload\n      div\n      mul\n      dup4\n      mstore\n      swap2\n      0x20\n      add\n      swap2\n      jump(tag_33)\n    tag_34:\n      dup3\n      add\n      swap2\n      swap1\n      0x00\n      mstore\n      keccak256(0x00, 0x20)\n      swap1\n    tag_35:\n      dup2\n      sload\n      dup2\n      mstore\n      swap1\n      0x01\n      add\n      swap1\n      0x20\n      add\n      dup1\n      dup4\n      gt\n      tag_35\n      jumpi\n      dup3\n      swap1\n      sub\n      0x1f\n      and\n      dup3\n      add\n      swap2\n    tag_33:\n      pop\n      pop\n      pop\n      pop\n      pop\n      dup2\n      mstore\n      0x20\n      add\n      0x02\n      dup3\n      add\n      sload\n      dup2\n      mstore\n      0x20\n      add\n      0x03\n      dup3\n      add\n      dup1\n      sload\n      tag_36\n      swap1\n      tag_31\n      jump\t// in\n    tag_36:\n      dup1\n      0x1f\n      add\n      0x20\n      dup1\n      swap2\n      div\n      mul\n      0x20\n      add\n      mload(0x40)\n      swap1\n      dup2\n      add\n      0x40\n      mstore\n      dup1\n      swap3\n      swap2\n      swap1\n      dup2\n      dup2\n      mstore\n      0x20\n      add\n      dup3\n      dup1\n      sload\n      tag_37\n      swap1\n      tag_31\n      jump\t// in\n    tag_37:\n      dup1\n      iszero\n      tag_38\n      jumpi\n      dup1\n      0x1f\n      lt\n      tag_39\n      jumpi\n      0x0100\n      dup1\n      dup4\n      sload\n      div\n      mul\n      dup4\n      mstore\n      swap2\n      0x20\n      add\n      swap2\n      jump(tag_38)\n    tag_39:\n      dup3\n      add\n      swap2\n      swap1\n      0x00\n      mstore\n      keccak256(0x00, 0x20)\n      swap1\n    tag_40:\n      dup2\n      sload\n      dup2\n      mstore\n      swap1\n      0x01\n      add\n      swap1\n      0x20\n      add\n      dup1\n      dup4\n      gt\n      tag_40\n      jumpi\n      dup3\n      swap1\n      sub\n      0x1f\n      and\n      dup3\n      add\n      swap2\n    tag_38:\n      pop\n      pop\n      pop\n      pop\n      pop\n      dup2\n      mstore\n      0x20\n      add\n      0x04\n      dup3\n      add\n      0x00\n      swap1\n      sload\n      swap1\n      0x0100\n      exp\n      swap1\n      div\n      0xff\n      and\n      iszero\n      iszero\n      iszero\n      iszero\n      dup2\n      mstore\n      pop\n      pop\n      swap1\n      pop\n        /* \"remix code/index.sol\":1308:1315  student */\n      dup1\n        /* \"remix code/index.sol\":1308:1318  student.id */\n      0x00\n      add\n      mload\n        /* \"remix code/index.sol\":1333:1340  student */\n      dup2\n        /* \"remix code/index.sol\":1333:1345  student.name */\n      0x20\n      add\n      mload\n        /* \"remix code/index.sol\":1360:1367  student */\n      dup3\n        /* \"remix code/index.sol\":1360:1371  student.age */\n      0x40\n      add\n      mload\n        /* \"remix code/index.sol\":1386:1393  student */\n      dup4\n        /* \"remix code/index.sol\":1386:1404  student.department */\n      0x60\n      add\n      mload\n        /* \"remix code/index.sol\":1286:1415  return (... */\n      swap5\n      pop\n      swap5\n      pop\n      swap5\n      pop\n      swap5\n      pop\n      pop\n        /* \"remix code/index.sol\":1033:1423  function getStudent(uint _id)... */\n      swap2\n      swap4\n      pop\n      swap2\n      swap4\n      jump\t// out\n        /* \"remix code/index.sol\":654:1025  function updateStudent(... */\n    tag_18:\n        /* \"remix code/index.sol\":815:823  students */\n      0x00\n        /* \"remix code/index.sol\":815:828  students[_id] */\n      0x00\n        /* \"remix code/index.sol\":824:827  _id */\n      dup6\n        /* \"remix code/index.sol\":815:828  students[_id] */\n      dup2\n      mstore\n      0x20\n      add\n      swap1\n      dup2\n      mstore\n      0x20\n      add\n      0x00\n      keccak256\n        /* \"remix code/index.sol\":815:835  students[_id].exists */\n      0x04\n      add\n      0x00\n      swap1\n      sload\n      swap1\n      0x0100\n      exp\n      swap1\n      div\n      0xff\n      and\n        /* \"remix code/index.sol\":807:862  require(students[_id].exists, \"Student does not exist\") */\n      tag_42\n      jumpi\n      mload(0x40)\n      0x08c379a000000000000000000000000000000000000000000000000000000000\n      dup2\n      mstore\n      0x04\n      add\n      tag_43\n      swap1\n      tag_29\n      jump\t// in\n    tag_43:\n      mload(0x40)\n      dup1\n      swap2\n      sub\n      swap1\n      revert\n    tag_42:\n        /* \"remix code/index.sol\":875:898  Student storage student */\n      0x00\n        /* \"remix code/index.sol\":901:909  students */\n      0x00\n        /* \"remix code/index.sol\":901:914  students[_id] */\n      0x00\n        /* \"remix code/index.sol\":910:913  _id */\n      dup7\n        /* \"remix code/index.sol\":901:914  students[_id] */\n      dup2\n      mstore\n      0x20\n      add\n      swap1\n      dup2\n      mstore\n      0x20\n      add\n      0x00\n      keccak256\n        /* \"remix code/index.sol\":875:914  Student storage student = students[_id] */\n      swap1\n      pop\n        /* \"remix code/index.sol\":940:945  _name */\n      dup4\n        /* \"remix code/index.sol\":925:932  student */\n      dup2\n        /* \"remix code/index.sol\":925:937  student.name */\n      0x01\n      add\n        /* \"remix code/index.sol\":925:945  student.name = _name */\n      swap1\n      dup2\n      tag_44\n      swap2\n      swap1\n      tag_24\n      jump\t// in\n    tag_44:\n      pop\n        /* \"remix code/index.sol\":970:974  _age */\n      dup3\n        /* \"remix code/index.sol\":956:963  student */\n      dup2\n        /* \"remix code/index.sol\":956:967  student.age */\n      0x02\n      add\n        /* \"remix code/index.sol\":956:974  student.age = _age */\n      dup2\n      swap1\n      sstore\n      pop\n        /* \"remix code/index.sol\":1006:1017  _department */\n      dup2\n        /* \"remix code/index.sol\":985:992  student */\n      dup2\n        /* \"remix code/index.sol\":985:1003  student.department */\n      0x03\n      add\n        /* \"remix code/index.sol\":985:1017  student.department = _department */\n      swap1\n      dup2\n      tag_45\n      swap2\n      swap1\n      tag_24\n      jump\t// in\n    tag_45:\n      pop\n        /* \"remix code/index.sol\":796:1025  {... */\n      pop\n        /* \"remix code/index.sol\":654:1025  function updateStudent(... */\n      pop\n      pop\n      pop\n      pop\n      jump\t// out\n        /* \"#utility.yul\":7:82   */\n    tag_46:\n        /* \"#utility.yul\":40:46   */\n      0x00\n        /* \"#utility.yul\":73:75   */\n      0x40\n        /* \"#utility.yul\":67:76   */\n      mload\n        /* \"#utility.yul\":57:76   */\n      swap1\n      pop\n        /* \"#utility.yul\":7:82   */\n      swap1\n      jump\t// out\n        /* \"#utility.yul\":88:205   */\n    tag_47:\n        /* \"#utility.yul\":197:198   */\n      0x00\n        /* \"#utility.yul\":194:195   */\n      0x00\n        /* \"#utility.yul\":187:199   */\n      revert\n        /* \"#utility.yul\":211:328   */\n    tag_48:\n        /* \"#utility.yul\":320:321   */\n      0x00\n        /* \"#utility.yul\":317:318   */\n      0x00\n        /* \"#utility.yul\":310:322   */\n      revert\n        /* \"#utility.yul\":334:411   */\n    tag_49:\n        /* \"#utility.yul\":371:378   */\n      0x00\n        /* \"#utility.yul\":400:405   */\n      dup2\n        /* \"#utility.yul\":389:405   */\n      swap1\n      pop\n        /* \"#utility.yul\":334:411   */\n      swap2\n      swap1\n      pop\n      jump\t// out\n        /* \"#utility.yul\":417:539   */\n    tag_50:\n        /* \"#utility.yul\":490:514   */\n      tag_93\n        /* \"#utility.yul\":508:513   */\n      dup2\n        /* \"#utility.yul\":490:514   */\n      tag_49\n      jump\t// in\n    tag_93:\n        /* \"#utility.yul\":483:488   */\n      dup2\n        /* \"#utility.yul\":480:515   */\n      eq\n        /* \"#utility.yul\":470:533   */\n      tag_94\n      jumpi\n        /* \"#utility.yul\":529:530   */\n      0x00\n        /* \"#utility.yul\":526:527   */\n      0x00\n        /* \"#utility.yul\":519:531   */\n      revert\n        /* \"#utility.yul\":470:533   */\n    tag_94:\n        /* \"#utility.yul\":417:539   */\n      pop\n      jump\t// out\n        /* \"#utility.yul\":545:684   */\n    tag_51:\n        /* \"#utility.yul\":591:596   */\n      0x00\n        /* \"#utility.yul\":629:635   */\n      dup2\n        /* \"#utility.yul\":616:636   */\n      calldataload\n        /* \"#utility.yul\":607:636   */\n      swap1\n      pop\n        /* \"#utility.yul\":645:678   */\n      tag_96\n        /* \"#utility.yul\":672:677   */\n      dup2\n        /* \"#utility.yul\":645:678   */\n      tag_50\n      jump\t// in\n    tag_96:\n        /* \"#utility.yul\":545:684   */\n      swap3\n      swap2\n      pop\n      pop\n      jump\t// out\n        /* \"#utility.yul\":690:807   */\n    tag_52:\n        /* \"#utility.yul\":799:800   */\n      0x00\n        /* \"#utility.yul\":796:797   */\n      0x00\n        /* \"#utility.yul\":789:801   */\n      revert\n        /* \"#utility.yul\":813:930   */\n    tag_53:\n        /* \"#utility.yul\":922:923   */\n      0x00\n        /* \"#utility.yul\":919:920   */\n      0x00\n        /* \"#utility.yul\":912:924   */\n      revert\n        /* \"#utility.yul\":936:1038   */\n    tag_54:\n        /* \"#utility.yul\":977:983   */\n      0x00\n        /* \"#utility.yul\":1028:1030   */\n      0x1f\n        /* \"#utility.yul\":1024:1031   */\n      not\n        /* \"#utility.yul\":1019:1021   */\n      0x1f\n        /* \"#utility.yul\":1012:1017   */\n      dup4\n        /* \"#utility.yul\":1008:1022   */\n      add\n        /* \"#utility.yul\":1004:1032   */\n      and\n        /* \"#utility.yul\":994:1032   */\n      swap1\n      pop\n        /* \"#utility.yul\":936:1038   */\n      swap2\n      swap1\n      pop\n      jump\t// out\n        /* \"#utility.yul\":1044:1224   */\n    tag_55:\n        /* \"#utility.yul\":1092:1169   */\n      0x4e487b7100000000000000000000000000000000000000000000000000000000\n        /* \"#utility.yul\":1089:1090   */\n      0x00\n        /* \"#utility.yul\":1082:1170   */\n      mstore\n        /* \"#utility.yul\":1189:1193   */\n      0x41\n        /* \"#utility.yul\":1186:1187   */\n      0x04\n        /* \"#utility.yul\":1179:1194   */\n      mstore\n        /* \"#utility.yul\":1213:1217   */\n      0x24\n        /* \"#utility.yul\":1210:1211   */\n      0x00\n        /* \"#utility.yul\":1203:1218   */\n      revert\n        /* \"#utility.yul\":1230:1511   */\n    tag_56:\n        /* \"#utility.yul\":1313:1340   */\n      tag_102\n        /* \"#utility.yul\":1335:1339   */\n      dup3\n        /* \"#utility.yul\":1313:1340   */\n      tag_54\n      jump\t// in\n    tag_102:\n        /* \"#utility.yul\":1305:1311   */\n      dup2\n        /* \"#utility.yul\":1301:1341   */\n      add\n        /* \"#utility.yul\":1443:1449   */\n      dup2\n        /* \"#utility.yul\":1431:1441   */\n      dup2\n        /* \"#utility.yul\":1428:1450   */\n      lt\n        /* \"#utility.yul\":1407:1425   */\n      0xffffffffffffffff\n        /* \"#utility.yul\":1395:1405   */\n      dup3\n        /* \"#utility.yul\":1392:1426   */\n      gt\n        /* \"#utility.yul\":1389:1451   */\n      or\n        /* \"#utility.yul\":1386:1474   */\n      iszero\n      tag_103\n      jumpi\n        /* \"#utility.yul\":1454:1472   */\n      tag_104\n      tag_55\n      jump\t// in\n    tag_104:\n        /* \"#utility.yul\":1386:1474   */\n    tag_103:\n        /* \"#utility.yul\":1494:1504   */\n      dup1\n        /* \"#utility.yul\":1490:1492   */\n      0x40\n        /* \"#utility.yul\":1483:1505   */\n      mstore\n        /* \"#utility.yul\":1273:1511   */\n      pop\n        /* \"#utility.yul\":1230:1511   */\n      pop\n      pop\n      jump\t// out\n        /* \"#utility.yul\":1517:1646   */\n    tag_57:\n        /* \"#utility.yul\":1551:1557   */\n      0x00\n        /* \"#utility.yul\":1578:1598   */\n      tag_106\n      tag_46\n      jump\t// in\n    tag_106:\n        /* \"#utility.yul\":1568:1598   */\n      swap1\n      pop\n        /* \"#utility.yul\":1607:1640   */\n      tag_107\n        /* \"#utility.yul\":1635:1639   */\n      dup3\n        /* \"#utility.yul\":1627:1633   */\n      dup3\n        /* \"#utility.yul\":1607:1640   */\n      tag_56\n      jump\t// in\n    tag_107:\n        /* \"#utility.yul\":1517:1646   */\n      swap2\n      swap1\n      pop\n      jump\t// out\n        /* \"#utility.yul\":1652:1960   */\n    tag_58:\n        /* \"#utility.yul\":1714:1718   */\n      0x00\n        /* \"#utility.yul\":1804:1822   */\n      0xffffffffffffffff\n        /* \"#utility.yul\":1796:1802   */\n      dup3\n        /* \"#utility.yul\":1793:1823   */\n      gt\n        /* \"#utility.yul\":1790:1846   */\n      iszero\n      tag_109\n      jumpi\n        /* \"#utility.yul\":1826:1844   */\n      tag_110\n      tag_55\n      jump\t// in\n    tag_110:\n        /* \"#utility.yul\":1790:1846   */\n    tag_109:\n        /* \"#utility.yul\":1864:1893   */\n      tag_111\n        /* \"#utility.yul\":1886:1892   */\n      dup3\n        /* \"#utility.yul\":1864:1893   */\n      tag_54\n      jump\t// in\n    tag_111:\n        /* \"#utility.yul\":1856:1893   */\n      swap1\n      pop\n        /* \"#utility.yul\":1948:1952   */\n      0x20\n        /* \"#utility.yul\":1942:1946   */\n      dup2\n        /* \"#utility.yul\":1938:1953   */\n      add\n        /* \"#utility.yul\":1930:1953   */\n      swap1\n      pop\n        /* \"#utility.yul\":1652:1960   */\n      swap2\n      swap1\n      pop\n      jump\t// out\n        /* \"#utility.yul\":1966:2114   */\n    tag_59:\n        /* \"#utility.yul\":2064:2070   */\n      dup3\n        /* \"#utility.yul\":2059:2062   */\n      dup2\n        /* \"#utility.yul\":2054:2057   */\n      dup4\n        /* \"#utility.yul\":2041:2071   */\n      calldatacopy\n        /* \"#utility.yul\":2105:2106   */\n      0x00\n        /* \"#utility.yul\":2096:2102   */\n      dup4\n        /* \"#utility.yul\":2091:2094   */\n      dup4\n        /* \"#utility.yul\":2087:2103   */\n      add\n        /* \"#utility.yul\":2080:2107   */\n      mstore\n        /* \"#utility.yul\":1966:2114   */\n      pop\n      pop\n      pop\n      jump\t// out\n        /* \"#utility.yul\":2120:2545   */\n    tag_60:\n        /* \"#utility.yul\":2198:2203   */\n      0x00\n        /* \"#utility.yul\":2223:2289   */\n      tag_114\n        /* \"#utility.yul\":2239:2288   */\n      tag_115\n        /* \"#utility.yul\":2281:2287   */\n      dup5\n        /* \"#utility.yul\":2239:2288   */\n      tag_58\n      jump\t// in\n    tag_115:\n        /* \"#utility.yul\":2223:2289   */\n      tag_57\n      jump\t// in\n    tag_114:\n        /* \"#utility.yul\":2214:2289   */\n      swap1\n      pop\n        /* \"#utility.yul\":2312:2318   */\n      dup3\n        /* \"#utility.yul\":2305:2310   */\n      dup2\n        /* \"#utility.yul\":2298:2319   */\n      mstore\n        /* \"#utility.yul\":2350:2354   */\n      0x20\n        /* \"#utility.yul\":2343:2348   */\n      dup2\n        /* \"#utility.yul\":2339:2355   */\n      add\n        /* \"#utility.yul\":2388:2391   */\n      dup5\n        /* \"#utility.yul\":2379:2385   */\n      dup5\n        /* \"#utility.yul\":2374:2377   */\n      dup5\n        /* \"#utility.yul\":2370:2386   */\n      add\n        /* \"#utility.yul\":2367:2392   */\n      gt\n        /* \"#utility.yul\":2364:2476   */\n      iszero\n      tag_116\n      jumpi\n        /* \"#utility.yul\":2395:2474   */\n      tag_117\n      tag_53\n      jump\t// in\n    tag_117:\n        /* \"#utility.yul\":2364:2476   */\n    tag_116:\n        /* \"#utility.yul\":2485:2539   */\n      tag_118\n        /* \"#utility.yul\":2532:2538   */\n      dup5\n        /* \"#utility.yul\":2527:2530   */\n      dup3\n        /* \"#utility.yul\":2522:2525   */\n      dup6\n        /* \"#utility.yul\":2485:2539   */\n      tag_59\n      jump\t// in\n    tag_118:\n        /* \"#utility.yul\":2204:2545   */\n      pop\n        /* \"#utility.yul\":2120:2545   */\n      swap4\n      swap3\n      pop\n      pop\n      pop\n      jump\t// out\n        /* \"#utility.yul\":2565:2905   */\n    tag_61:\n        /* \"#utility.yul\":2621:2626   */\n      0x00\n        /* \"#utility.yul\":2670:2673   */\n      dup3\n        /* \"#utility.yul\":2663:2667   */\n      0x1f\n        /* \"#utility.yul\":2655:2661   */\n      dup4\n        /* \"#utility.yul\":2651:2668   */\n      add\n        /* \"#utility.yul\":2647:2674   */\n      slt\n        /* \"#utility.yul\":2637:2759   */\n      tag_120\n      jumpi\n        /* \"#utility.yul\":2678:2757   */\n      tag_121\n      tag_52\n      jump\t// in\n    tag_121:\n        /* \"#utility.yul\":2637:2759   */\n    tag_120:\n        /* \"#utility.yul\":2795:2801   */\n      dup2\n        /* \"#utility.yul\":2782:2802   */\n      calldataload\n        /* \"#utility.yul\":2820:2899   */\n      tag_122\n        /* \"#utility.yul\":2895:2898   */\n      dup5\n        /* \"#utility.yul\":2887:2893   */\n      dup3\n        /* \"#utility.yul\":2880:2884   */\n      0x20\n        /* \"#utility.yul\":2872:2878   */\n      dup7\n        /* \"#utility.yul\":2868:2885   */\n      add\n        /* \"#utility.yul\":2820:2899   */\n      tag_60\n      jump\t// in\n    tag_122:\n        /* \"#utility.yul\":2811:2899   */\n      swap2\n      pop\n        /* \"#utility.yul\":2627:2905   */\n      pop\n        /* \"#utility.yul\":2565:2905   */\n      swap3\n      swap2\n      pop\n      pop\n      jump\t// out\n        /* \"#utility.yul\":2911:4036   */\n    tag_8:\n        /* \"#utility.yul\":3017:3023   */\n      0x00\n        /* \"#utility.yul\":3025:3031   */\n      0x00\n        /* \"#utility.yul\":3033:3039   */\n      0x00\n        /* \"#utility.yul\":3041:3047   */\n      0x00\n        /* \"#utility.yul\":3090:3093   */\n      0x80\n        /* \"#utility.yul\":3078:3087   */\n      dup6\n        /* \"#utility.yul\":3069:3076   */\n      dup8\n        /* \"#utility.yul\":3065:3088   */\n      sub\n        /* \"#utility.yul\":3061:3094   */\n      slt\n        /* \"#utility.yul\":3058:3178   */\n      iszero\n      tag_124\n      jumpi\n        /* \"#utility.yul\":3097:3176   */\n      tag_125\n      tag_47\n      jump\t// in\n    tag_125:\n        /* \"#utility.yul\":3058:3178   */\n    tag_124:\n        /* \"#utility.yul\":3217:3218   */\n      0x00\n        /* \"#utility.yul\":3242:3295   */\n      tag_126\n        /* \"#utility.yul\":3287:3294   */\n      dup8\n        /* \"#utility.yul\":3278:3284   */\n      dup3\n        /* \"#utility.yul\":3267:3276   */\n      dup9\n        /* \"#utility.yul\":3263:3285   */\n      add\n        /* \"#utility.yul\":3242:3295   */\n      tag_51\n      jump\t// in\n    tag_126:\n        /* \"#utility.yul\":3232:3295   */\n      swap5\n      pop\n        /* \"#utility.yul\":3188:3305   */\n      pop\n        /* \"#utility.yul\":3372:3374   */\n      0x20\n        /* \"#utility.yul\":3361:3370   */\n      dup6\n        /* \"#utility.yul\":3357:3375   */\n      add\n        /* \"#utility.yul\":3344:3376   */\n      calldataload\n        /* \"#utility.yul\":3403:3421   */\n      0xffffffffffffffff\n        /* \"#utility.yul\":3395:3401   */\n      dup2\n        /* \"#utility.yul\":3392:3422   */\n      gt\n        /* \"#utility.yul\":3389:3506   */\n      iszero\n      tag_127\n      jumpi\n        /* \"#utility.yul\":3425:3504   */\n      tag_128\n      tag_48\n      jump\t// in\n    tag_128:\n        /* \"#utility.yul\":3389:3506   */\n    tag_127:\n        /* \"#utility.yul\":3530:3593   */\n      tag_129\n        /* \"#utility.yul\":3585:3592   */\n      dup8\n        /* \"#utility.yul\":3576:3582   */\n      dup3\n        /* \"#utility.yul\":3565:3574   */\n      dup9\n        /* \"#utility.yul\":3561:3583   */\n      add\n        /* \"#utility.yul\":3530:3593   */\n      tag_61\n      jump\t// in\n    tag_129:\n        /* \"#utility.yul\":3520:3593   */\n      swap4\n      pop\n        /* \"#utility.yul\":3315:3603   */\n      pop\n        /* \"#utility.yul\":3642:3644   */\n      0x40\n        /* \"#utility.yul\":3668:3721   */\n      tag_130\n        /* \"#utility.yul\":3713:3720   */\n      dup8\n        /* \"#utility.yul\":3704:3710   */\n      dup3\n        /* \"#utility.yul\":3693:3702   */\n      dup9\n        /* \"#utility.yul\":3689:3711   */\n      add\n        /* \"#utility.yul\":3668:3721   */\n      tag_51\n      jump\t// in\n    tag_130:\n        /* \"#utility.yul\":3658:3721   */\n      swap3\n      pop\n        /* \"#utility.yul\":3613:3731   */\n      pop\n        /* \"#utility.yul\":3798:3800   */\n      0x60\n        /* \"#utility.yul\":3787:3796   */\n      dup6\n        /* \"#utility.yul\":3783:3801   */\n      add\n        /* \"#utility.yul\":3770:3802   */\n      calldataload\n        /* \"#utility.yul\":3829:3847   */\n      0xffffffffffffffff\n        /* \"#utility.yul\":3821:3827   */\n      dup2\n        /* \"#utility.yul\":3818:3848   */\n      gt\n        /* \"#utility.yul\":3815:3932   */\n      iszero\n      tag_131\n      jumpi\n        /* \"#utility.yul\":3851:3930   */\n      tag_132\n      tag_48\n      jump\t// in\n    tag_132:\n        /* \"#utility.yul\":3815:3932   */\n    tag_131:\n        /* \"#utility.yul\":3956:4019   */\n      tag_133\n        /* \"#utility.yul\":4011:4018   */\n      dup8\n        /* \"#utility.yul\":4002:4008   */\n      dup3\n        /* \"#utility.yul\":3991:4000   */\n      dup9\n        /* \"#utility.yul\":3987:4009   */\n      add\n        /* \"#utility.yul\":3956:4019   */\n      tag_61\n      jump\t// in\n    tag_133:\n        /* \"#utility.yul\":3946:4019   */\n      swap2\n      pop\n        /* \"#utility.yul\":3741:4029   */\n      pop\n        /* \"#utility.yul\":2911:4036   */\n      swap3\n      swap6\n      swap2\n      swap5\n      pop\n      swap3\n      pop\n      jump\t// out\n        /* \"#utility.yul\":4042:4371   */\n    tag_12:\n        /* \"#utility.yul\":4101:4107   */\n      0x00\n        /* \"#utility.yul\":4150:4152   */\n      0x20\n        /* \"#utility.yul\":4138:4147   */\n      dup3\n        /* \"#utility.yul\":4129:4136   */\n      dup5\n        /* \"#utility.yul\":4125:4148   */\n      sub\n        /* \"#utility.yul\":4121:4153   */\n      slt\n        /* \"#utility.yul\":4118:4237   */\n      iszero\n      tag_135\n      jumpi\n        /* \"#utility.yul\":4156:4235   */\n      tag_136\n      tag_47\n      jump\t// in\n    tag_136:\n        /* \"#utility.yul\":4118:4237   */\n    tag_135:\n        /* \"#utility.yul\":4276:4277   */\n      0x00\n        /* \"#utility.yul\":4301:4354   */\n      tag_137\n        /* \"#utility.yul\":4346:4353   */\n      dup5\n        /* \"#utility.yul\":4337:4343   */\n      dup3\n        /* \"#utility.yul\":4326:4335   */\n      dup6\n        /* \"#utility.yul\":4322:4344   */\n      add\n        /* \"#utility.yul\":4301:4354   */\n      tag_51\n      jump\t// in\n    tag_137:\n        /* \"#utility.yul\":4291:4354   */\n      swap2\n      pop\n        /* \"#utility.yul\":4247:4364   */\n      pop\n        /* \"#utility.yul\":4042:4371   */\n      swap3\n      swap2\n      pop\n      pop\n      jump\t// out\n        /* \"#utility.yul\":4377:4495   */\n    tag_62:\n        /* \"#utility.yul\":4464:4488   */\n      tag_139\n        /* \"#utility.yul\":4482:4487   */\n      dup2\n        /* \"#utility.yul\":4464:4488   */\n      tag_49\n      jump\t// in\n    tag_139:\n        /* \"#utility.yul\":4459:4462   */\n      dup3\n        /* \"#utility.yul\":4452:4489   */\n      mstore\n        /* \"#utility.yul\":4377:4495   */\n      pop\n      pop\n      jump\t// out\n        /* \"#utility.yul\":4501:4600   */\n    tag_63:\n        /* \"#utility.yul\":4553:4559   */\n      0x00\n        /* \"#utility.yul\":4587:4592   */\n      dup2\n        /* \"#utility.yul\":4581:4593   */\n      mload\n        /* \"#utility.yul\":4571:4593   */\n      swap1\n      pop\n        /* \"#utility.yul\":4501:4600   */\n      swap2\n      swap1\n      pop\n      jump\t// out\n        /* \"#utility.yul\":4606:4775   */\n    tag_64:\n        /* \"#utility.yul\":4690:4701   */\n      0x00\n        /* \"#utility.yul\":4724:4730   */\n      dup3\n        /* \"#utility.yul\":4719:4722   */\n      dup3\n        /* \"#utility.yul\":4712:4731   */\n      mstore\n        /* \"#utility.yul\":4764:4768   */\n      0x20\n        /* \"#utility.yul\":4759:4762   */\n      dup3\n        /* \"#utility.yul\":4755:4769   */\n      add\n        /* \"#utility.yul\":4740:4769   */\n      swap1\n      pop\n        /* \"#utility.yul\":4606:4775   */\n      swap3\n      swap2\n      pop\n      pop\n      jump\t// out\n        /* \"#utility.yul\":4781:4920   */\n    tag_65:\n        /* \"#utility.yul\":4870:4876   */\n      dup3\n        /* \"#utility.yul\":4865:4868   */\n      dup2\n        /* \"#utility.yul\":4860:4863   */\n      dup4\n        /* \"#utility.yul\":4854:4877   */\n      mcopy\n        /* \"#utility.yul\":4911:4912   */\n      0x00\n        /* \"#utility.yul\":4902:4908   */\n      dup4\n        /* \"#utility.yul\":4897:4900   */\n      dup4\n        /* \"#utility.yul\":4893:4909   */\n      add\n        /* \"#utility.yul\":4886:4913   */\n      mstore\n        /* \"#utility.yul\":4781:4920   */\n      pop\n      pop\n      pop\n      jump\t// out\n        /* \"#utility.yul\":4926:5303   */\n    tag_66:\n        /* \"#utility.yul\":5014:5017   */\n      0x00\n        /* \"#utility.yul\":5042:5081   */\n      tag_144\n        /* \"#utility.yul\":5075:5080   */\n      dup3\n        /* \"#utility.yul\":5042:5081   */\n      tag_63\n      jump\t// in\n    tag_144:\n        /* \"#utility.yul\":5097:5168   */\n      tag_145\n        /* \"#utility.yul\":5161:5167   */\n      dup2\n        /* \"#utility.yul\":5156:5159   */\n      dup6\n        /* \"#utility.yul\":5097:5168   */\n      tag_64\n      jump\t// in\n    tag_145:\n        /* \"#utility.yul\":5090:5168   */\n      swap4\n      pop\n        /* \"#utility.yul\":5177:5242   */\n      tag_146\n        /* \"#utility.yul\":5235:5241   */\n      dup2\n        /* \"#utility.yul\":5230:5233   */\n      dup6\n        /* \"#utility.yul\":5223:5227   */\n      0x20\n        /* \"#utility.yul\":5216:5221   */\n      dup7\n        /* \"#utility.yul\":5212:5228   */\n      add\n        /* \"#utility.yul\":5177:5242   */\n      tag_65\n      jump\t// in\n    tag_146:\n        /* \"#utility.yul\":5267:5296   */\n      tag_147\n        /* \"#utility.yul\":5289:5295   */\n      dup2\n        /* \"#utility.yul\":5267:5296   */\n      tag_54\n      jump\t// in\n    tag_147:\n        /* \"#utility.yul\":5262:5265   */\n      dup5\n        /* \"#utility.yul\":5258:5297   */\n      add\n        /* \"#utility.yul\":5251:5297   */\n      swap2\n      pop\n        /* \"#utility.yul\":5018:5303   */\n      pop\n        /* \"#utility.yul\":4926:5303   */\n      swap3\n      swap2\n      pop\n      pop\n      jump\t// out\n        /* \"#utility.yul\":5309:6044   */\n    tag_15:\n        /* \"#utility.yul\":5526:5530   */\n      0x00\n        /* \"#utility.yul\":5564:5567   */\n      0x80\n        /* \"#utility.yul\":5553:5562   */\n      dup3\n        /* \"#utility.yul\":5549:5568   */\n      add\n        /* \"#utility.yul\":5541:5568   */\n      swap1\n      pop\n        /* \"#utility.yul\":5578:5649   */\n      tag_149\n        /* \"#utility.yul\":5646:5647   */\n      0x00\n        /* \"#utility.yul\":5635:5644   */\n      dup4\n        /* \"#utility.yul\":5631:5648   */\n      add\n        /* \"#utility.yul\":5622:5628   */\n      dup8\n        /* \"#utility.yul\":5578:5649   */\n      tag_62\n      jump\t// in\n    tag_149:\n        /* \"#utility.yul\":5696:5705   */\n      dup2\n        /* \"#utility.yul\":5690:5694   */\n      dup2\n        /* \"#utility.yul\":5686:5706   */\n      sub\n        /* \"#utility.yul\":5681:5683   */\n      0x20\n        /* \"#utility.yul\":5670:5679   */\n      dup4\n        /* \"#utility.yul\":5666:5684   */\n      add\n        /* \"#utility.yul\":5659:5707   */\n      mstore\n        /* \"#utility.yul\":5724:5802   */\n      tag_150\n        /* \"#utility.yul\":5797:5801   */\n      dup2\n        /* \"#utility.yul\":5788:5794   */\n      dup7\n        /* \"#utility.yul\":5724:5802   */\n      tag_66\n      jump\t// in\n    tag_150:\n        /* \"#utility.yul\":5716:5802   */\n      swap1\n      pop\n        /* \"#utility.yul\":5812:5884   */\n      tag_151\n        /* \"#utility.yul\":5880:5882   */\n      0x40\n        /* \"#utility.yul\":5869:5878   */\n      dup4\n        /* \"#utility.yul\":5865:5883   */\n      add\n        /* \"#utility.yul\":5856:5862   */\n      dup6\n        /* \"#utility.yul\":5812:5884   */\n      tag_62\n      jump\t// in\n    tag_151:\n        /* \"#utility.yul\":5931:5940   */\n      dup2\n        /* \"#utility.yul\":5925:5929   */\n      dup2\n        /* \"#utility.yul\":5921:5941   */\n      sub\n        /* \"#utility.yul\":5916:5918   */\n      0x60\n        /* \"#utility.yul\":5905:5914   */\n      dup4\n        /* \"#utility.yul\":5901:5919   */\n      add\n        /* \"#utility.yul\":5894:5942   */\n      mstore\n        /* \"#utility.yul\":5959:6037   */\n      tag_152\n        /* \"#utility.yul\":6032:6036   */\n      dup2\n        /* \"#utility.yul\":6023:6029   */\n      dup5\n        /* \"#utility.yul\":5959:6037   */\n      tag_66\n      jump\t// in\n    tag_152:\n        /* \"#utility.yul\":5951:6037   */\n      swap1\n      pop\n        /* \"#utility.yul\":5309:6044   */\n      swap6\n      swap5\n      pop\n      pop\n      pop\n      pop\n      pop\n      jump\t// out\n        /* \"#utility.yul\":6050:6222   */\n    tag_67:\n        /* \"#utility.yul\":6190:6214   */\n      0x53747564656e7420616c72656164792065786973747300000000000000000000\n        /* \"#utility.yul\":6186:6187   */\n      0x00\n        /* \"#utility.yul\":6178:6184   */\n      dup3\n        /* \"#utility.yul\":6174:6188   */\n      add\n        /* \"#utility.yul\":6167:6215   */\n      mstore\n        /* \"#utility.yul\":6050:6222   */\n      pop\n      jump\t// out\n        /* \"#utility.yul\":6228:6594   */\n    tag_68:\n        /* \"#utility.yul\":6370:6373   */\n      0x00\n        /* \"#utility.yul\":6391:6458   */\n      tag_155\n        /* \"#utility.yul\":6455:6457   */\n      0x16\n        /* \"#utility.yul\":6450:6453   */\n      dup4\n        /* \"#utility.yul\":6391:6458   */\n      tag_64\n      jump\t// in\n    tag_155:\n        /* \"#utility.yul\":6384:6458   */\n      swap2\n      pop\n        /* \"#utility.yul\":6467:6560   */\n      tag_156\n        /* \"#utility.yul\":6556:6559   */\n      dup3\n        /* \"#utility.yul\":6467:6560   */\n      tag_67\n      jump\t// in\n    tag_156:\n        /* \"#utility.yul\":6585:6587   */\n      0x20\n        /* \"#utility.yul\":6580:6583   */\n      dup3\n        /* \"#utility.yul\":6576:6588   */\n      add\n        /* \"#utility.yul\":6569:6588   */\n      swap1\n      pop\n        /* \"#utility.yul\":6228:6594   */\n      swap2\n      swap1\n      pop\n      jump\t// out\n        /* \"#utility.yul\":6600:7019   */\n    tag_22:\n        /* \"#utility.yul\":6766:6770   */\n      0x00\n        /* \"#utility.yul\":6804:6806   */\n      0x20\n        /* \"#utility.yul\":6793:6802   */\n      dup3\n        /* \"#utility.yul\":6789:6807   */\n      add\n        /* \"#utility.yul\":6781:6807   */\n      swap1\n      pop\n        /* \"#utility.yul\":6853:6862   */\n      dup2\n        /* \"#utility.yul\":6847:6851   */\n      dup2\n        /* \"#utility.yul\":6843:6863   */\n      sub\n        /* \"#utility.yul\":6839:6840   */\n      0x00\n        /* \"#utility.yul\":6828:6837   */\n      dup4\n        /* \"#utility.yul\":6824:6841   */\n      add\n        /* \"#utility.yul\":6817:6864   */\n      mstore\n        /* \"#utility.yul\":6881:7012   */\n      tag_158\n        /* \"#utility.yul\":7007:7011   */\n      dup2\n        /* \"#utility.yul\":6881:7012   */\n      tag_68\n      jump\t// in\n    tag_158:\n        /* \"#utility.yul\":6873:7012   */\n      swap1\n      pop\n        /* \"#utility.yul\":6600:7019   */\n      swap2\n      swap1\n      pop\n      jump\t// out\n        /* \"#utility.yul\":7025:7205   */\n    tag_69:\n        /* \"#utility.yul\":7073:7150   */\n      0x4e487b7100000000000000000000000000000000000000000000000000000000\n        /* \"#utility.yul\":7070:7071   */\n      0x00\n        /* \"#utility.yul\":7063:7151   */\n      mstore\n        /* \"#utility.yul\":7170:7174   */\n      0x22\n        /* \"#utility.yul\":7167:7168   */\n      0x04\n        /* \"#utility.yul\":7160:7175   */\n      mstore\n        /* \"#utility.yul\":7194:7198   */\n      0x24\n        /* \"#utility.yul\":7191:7192   */\n      0x00\n        /* \"#utility.yul\":7184:7199   */\n      revert\n        /* \"#utility.yul\":7211:7531   */\n    tag_31:\n        /* \"#utility.yul\":7255:7261   */\n      0x00\n        /* \"#utility.yul\":7292:7293   */\n      0x02\n        /* \"#utility.yul\":7286:7290   */\n      dup3\n        /* \"#utility.yul\":7282:7294   */\n      div\n        /* \"#utility.yul\":7272:7294   */\n      swap1\n      pop\n        /* \"#utility.yul\":7339:7340   */\n      0x01\n        /* \"#utility.yul\":7333:7337   */\n      dup3\n        /* \"#utility.yul\":7329:7341   */\n      and\n        /* \"#utility.yul\":7360:7378   */\n      dup1\n        /* \"#utility.yul\":7350:7431   */\n      tag_161\n      jumpi\n        /* \"#utility.yul\":7416:7420   */\n      0x7f\n        /* \"#utility.yul\":7408:7414   */\n      dup3\n        /* \"#utility.yul\":7404:7421   */\n      and\n        /* \"#utility.yul\":7394:7421   */\n      swap2\n      pop\n        /* \"#utility.yul\":7350:7431   */\n    tag_161:\n        /* \"#utility.yul\":7478:7480   */\n      0x20\n        /* \"#utility.yul\":7470:7476   */\n      dup3\n        /* \"#utility.yul\":7467:7481   */\n      lt\n        /* \"#utility.yul\":7447:7465   */\n      dup2\n        /* \"#utility.yul\":7444:7482   */\n      sub\n        /* \"#utility.yul\":7441:7525   */\n      tag_162\n      jumpi\n        /* \"#utility.yul\":7497:7515   */\n      tag_163\n      tag_69\n      jump\t// in\n    tag_163:\n        /* \"#utility.yul\":7441:7525   */\n    tag_162:\n        /* \"#utility.yul\":7262:7531   */\n      pop\n        /* \"#utility.yul\":7211:7531   */\n      swap2\n      swap1\n      pop\n      jump\t// out\n        /* \"#utility.yul\":7537:7678   */\n    tag_70:\n        /* \"#utility.yul\":7586:7590   */\n      0x00\n        /* \"#utility.yul\":7609:7612   */\n      dup2\n        /* \"#utility.yul\":7601:7612   */\n      swap1\n      pop\n        /* \"#utility.yul\":7632:7635   */\n      dup2\n        /* \"#utility.yul\":7629:7630   */\n      0x00\n        /* \"#utility.yul\":7622:7636   */\n      mstore\n        /* \"#utility.yul\":7666:7670   */\n      0x20\n        /* \"#utility.yul\":7663:7664   */\n      0x00\n        /* \"#utility.yul\":7653:7671   */\n      keccak256\n        /* \"#utility.yul\":7645:7671   */\n      swap1\n      pop\n        /* \"#utility.yul\":7537:7678   */\n      swap2\n      swap1\n      pop\n      jump\t// out\n        /* \"#utility.yul\":7684:7777   */\n    tag_71:\n        /* \"#utility.yul\":7721:7727   */\n      0x00\n        /* \"#utility.yul\":7768:7770   */\n      0x20\n        /* \"#utility.yul\":7763:7765   */\n      0x1f\n        /* \"#utility.yul\":7756:7761   */\n      dup4\n        /* \"#utility.yul\":7752:7766   */\n      add\n        /* \"#utility.yul\":7748:7771   */\n      div\n        /* \"#utility.yul\":7738:7771   */\n      swap1\n      pop\n        /* \"#utility.yul\":7684:7777   */\n      swap2\n      swap1\n      pop\n      jump\t// out\n        /* \"#utility.yul\":7783:7890   */\n    tag_72:\n        /* \"#utility.yul\":7827:7835   */\n      0x00\n        /* \"#utility.yul\":7877:7882   */\n      dup3\n        /* \"#utility.yul\":7871:7875   */\n      dup3\n        /* \"#utility.yul\":7867:7883   */\n      shl\n        /* \"#utility.yul\":7846:7883   */\n      swap1\n      pop\n        /* \"#utility.yul\":7783:7890   */\n      swap3\n      swap2\n      pop\n      pop\n      jump\t// out\n        /* \"#utility.yul\":7896:8289   */\n    tag_73:\n        /* \"#utility.yul\":7965:7971   */\n      0x00\n        /* \"#utility.yul\":8015:8016   */\n      0x08\n        /* \"#utility.yul\":8003:8013   */\n      dup4\n        /* \"#utility.yul\":7999:8017   */\n      mul\n        /* \"#utility.yul\":8038:8135   */\n      tag_168\n        /* \"#utility.yul\":8068:8134   */\n      0xffffffffffffffffffffffffffffffffffffffffffffffffffffffffffffffff\n        /* \"#utility.yul\":8057:8066   */\n      dup3\n        /* \"#utility.yul\":8038:8135   */\n      tag_72\n      jump\t// in\n    tag_168:\n        /* \"#utility.yul\":8156:8195   */\n      tag_169\n        /* \"#utility.yul\":8186:8194   */\n      dup7\n        /* \"#utility.yul\":8175:8184   */\n      dup4\n        /* \"#utility.yul\":8156:8195   */\n      tag_72\n      jump\t// in\n    tag_169:\n        /* \"#utility.yul\":8144:8195   */\n      swap6\n      pop\n        /* \"#utility.yul\":8228:8232   */\n      dup1\n        /* \"#utility.yul\":8224:8233   */\n      not\n        /* \"#utility.yul\":8217:8222   */\n      dup5\n        /* \"#utility.yul\":8213:8234   */\n      and\n        /* \"#utility.yul\":8204:8234   */\n      swap4\n      pop\n        /* \"#utility.yul\":8277:8281   */\n      dup1\n        /* \"#utility.yul\":8267:8275   */\n      dup7\n        /* \"#utility.yul\":8263:8282   */\n      and\n        /* \"#utility.yul\":8256:8261   */\n      dup5\n        /* \"#utility.yul\":8253:8283   */\n      or\n        /* \"#utility.yul\":8243:8283   */\n      swap3\n      pop\n        /* \"#utility.yul\":7972:8289   */\n      pop\n      pop\n        /* \"#utility.yul\":7896:8289   */\n      swap4\n      swap3\n      pop\n      pop\n      pop\n      jump\t// out\n        /* \"#utility.yul\":8295:8355   */\n    tag_74:\n        /* \"#utility.yul\":8323:8326   */\n      0x00\n        /* \"#utility.yul\":8344:8349   */\n      dup2\n        /* \"#utility.yul\":8337:8349   */\n      swap1\n      pop\n        /* \"#utility.yul\":8295:8355   */\n      swap2\n      swap1\n      pop\n      jump\t// out\n        /* \"#utility.yul\":8361:8503   */\n    tag_75:\n        /* \"#utility.yul\":8411:8420   */\n      0x00\n        /* \"#utility.yul\":8444:8497   */\n      tag_172\n        /* \"#utility.yul\":8462:8496   */\n      tag_173\n        /* \"#utility.yul\":8471:8495   */\n      tag_174\n        /* \"#utility.yul\":8489:8494   */\n      dup5\n        /* \"#utility.yul\":8471:8495   */\n      tag_49\n      jump\t// in\n    tag_174:\n        /* \"#utility.yul\":8462:8496   */\n      tag_74\n      jump\t// in\n    tag_173:\n        /* \"#utility.yul\":8444:8497   */\n      tag_49\n      jump\t// in\n    tag_172:\n        /* \"#utility.yul\":8431:8497   */\n      swap1\n      pop\n        /* \"#utility.yul\":8361:8503   */\n      swap2\n      swap1\n      pop\n      jump\t// out\n        /* \"#utility.yul\":8509:8584   */\n    tag_76:\n        /* \"#utility.yul\":8552:8555   */\n      0x00\n        /* \"#utility.yul\":8573:8578   */\n      dup2\n        /* \"#utility.yul\":8566:8578   */\n      swap1\n      pop\n        /* \"#utility.yul\":8509:8584   */\n      swap2\n      swap1\n      pop\n      jump\t// out\n        /* \"#utility.yul\":8590:8859   */\n    tag_77:\n        /* \"#utility.yul\":8700:8739   */\n      tag_177\n        /* \"#utility.yul\":8731:8738   */\n      dup4\n        /* \"#utility.yul\":8700:8739   */\n      tag_75\n      jump\t// in\n    tag_177:\n        /* \"#utility.yul\":8761:8852   */\n      tag_178\n        /* \"#utility.yul\":8810:8851   */\n      tag_179\n        /* \"#utility.yul\":8834:8850   */\n      dup3\n        /* \"#utility.yul\":8810:8851   */\n      tag_76\n      jump\t// in\n    tag_179:\n        /* \"#utility.yul\":8802:8808   */\n      dup5\n        /* \"#utility.yul\":8795:8799   */\n      dup5\n        /* \"#utility.yul\":8789:8800   */\n      sload\n        /* \"#utility.yul\":8761:8852   */\n      tag_73\n      jump\t// in\n    tag_178:\n        /* \"#utility.yul\":8755:8759   */\n      dup3\n        /* \"#utility.yul\":8748:8853   */\n      sstore\n        /* \"#utility.yul\":8666:8859   */\n      pop\n        /* \"#utility.yul\":8590:8859   */\n      pop\n      pop\n      pop\n      jump\t// out\n        /* \"#utility.yul\":8865:8938   */\n    tag_78:\n        /* \"#utility.yul\":8910:8913   */\n      0x00\n        /* \"#utility.yul\":8931:8932   */\n      0x00\n        /* \"#utility.yul\":8924:8932   */\n      swap1\n      pop\n        /* \"#utility.yul\":8865:8938   */\n      swap1\n      jump\t// out\n        /* \"#utility.yul\":8944:9133   */\n    tag_79:\n        /* \"#utility.yul\":9021:9053   */\n      tag_182\n      tag_78\n      jump\t// in\n    tag_182:\n        /* \"#utility.yul\":9062:9127   */\n      tag_183\n        /* \"#utility.yul\":9120:9126   */\n      dup2\n        /* \"#utility.yul\":9112:9118   */\n      dup5\n        /* \"#utility.yul\":9106:9110   */\n      dup5\n        /* \"#utility.yul\":9062:9127   */\n      tag_77\n      jump\t// in\n    tag_183:\n        /* \"#utility.yul\":8997:9133   */\n      pop\n        /* \"#utility.yul\":8944:9133   */\n      pop\n      pop\n      jump\t// out\n        /* \"#utility.yul\":9139:9325   */\n    tag_80:\n        /* \"#utility.yul\":9199:9319   */\n    tag_185:\n        /* \"#utility.yul\":9216:9219   */\n      dup2\n        /* \"#utility.yul\":9209:9214   */\n      dup2\n        /* \"#utility.yul\":9206:9220   */\n      lt\n        /* \"#utility.yul\":9199:9319   */\n      iszero\n      tag_187\n      jumpi\n        /* \"#utility.yul\":9270:9309   */\n      tag_188\n        /* \"#utility.yul\":9307:9308   */\n      0x00\n        /* \"#utility.yul\":9300:9305   */\n      dup3\n        /* \"#utility.yul\":9270:9309   */\n      tag_79\n      jump\t// in\n    tag_188:\n        /* \"#utility.yul\":9243:9244   */\n      0x01\n        /* \"#utility.yul\":9236:9241   */\n      dup2\n        /* \"#utility.yul\":9232:9245   */\n      add\n        /* \"#utility.yul\":9223:9245   */\n      swap1\n      pop\n        /* \"#utility.yul\":9199:9319   */\n      jump(tag_185)\n    tag_187:\n        /* \"#utility.yul\":9139:9325   */\n      pop\n      pop\n      jump\t// out\n        /* \"#utility.yul\":9331:9874   */\n    tag_81:\n        /* \"#utility.yul\":9432:9434   */\n      0x1f\n        /* \"#utility.yul\":9427:9430   */\n      dup3\n        /* \"#utility.yul\":9424:9435   */\n      gt\n        /* \"#utility.yul\":9421:9867   */\n      iszero\n      tag_190\n      jumpi\n        /* \"#utility.yul\":9466:9504   */\n      tag_191\n        /* \"#utility.yul\":9498:9503   */\n      dup2\n        /* \"#utility.yul\":9466:9504   */\n      tag_70\n      jump\t// in\n    tag_191:\n        /* \"#utility.yul\":9550:9579   */\n      tag_192\n        /* \"#utility.yul\":9568:9578   */\n      dup5\n        /* \"#utility.yul\":9550:9579   */\n      tag_71\n      jump\t// in\n    tag_192:\n        /* \"#utility.yul\":9540:9548   */\n      dup2\n        /* \"#utility.yul\":9536:9580   */\n      add\n        /* \"#utility.yul\":9733:9735   */\n      0x20\n        /* \"#utility.yul\":9721:9731   */\n      dup6\n        /* \"#utility.yul\":9718:9736   */\n      lt\n        /* \"#utility.yul\":9715:9764   */\n      iszero\n      tag_193\n      jumpi\n        /* \"#utility.yul\":9754:9762   */\n      dup2\n        /* \"#utility.yul\":9739:9762   */\n      swap1\n      pop\n        /* \"#utility.yul\":9715:9764   */\n    tag_193:\n        /* \"#utility.yul\":9777:9857   */\n      tag_194\n        /* \"#utility.yul\":9833:9855   */\n      tag_195\n        /* \"#utility.yul\":9851:9854   */\n      dup6\n        /* \"#utility.yul\":9833:9855   */\n      tag_71\n      jump\t// in\n    tag_195:\n        /* \"#utility.yul\":9823:9831   */\n      dup4\n        /* \"#utility.yul\":9819:9856   */\n      add\n        /* \"#utility.yul\":9806:9817   */\n      dup3\n        /* \"#utility.yul\":9777:9857   */\n      tag_80\n      jump\t// in\n    tag_194:\n        /* \"#utility.yul\":9436:9867   */\n      pop\n      pop\n        /* \"#utility.yul\":9421:9867   */\n    tag_190:\n        /* \"#utility.yul\":9331:9874   */\n      pop\n      pop\n      pop\n      jump\t// out\n        /* \"#utility.yul\":9880:9997   */\n    tag_82:\n        /* \"#utility.yul\":9934:9942   */\n      0x00\n        /* \"#utility.yul\":9984:9989   */\n      dup3\n        /* \"#utility.yul\":9978:9982   */\n      dup3\n        /* \"#utility.yul\":9974:9990   */\n      shr\n        /* \"#utility.yul\":9953:9990   */\n      swap1\n      pop\n        /* \"#utility.yul\":9880:9997   */\n      swap3\n      swap2\n      pop\n      pop\n      jump\t// out\n        /* \"#utility.yul\":10003:10172   */\n    tag_83:\n        /* \"#utility.yul\":10047:10053   */\n      0x00\n        /* \"#utility.yul\":10080:10131   */\n      tag_198\n        /* \"#utility.yul\":10128:10129   */\n      0x00\n        /* \"#utility.yul\":10124:10130   */\n      not\n        /* \"#utility.yul\":10116:10121   */\n      dup5\n        /* \"#utility.yul\":10113:10114   */\n      0x08\n        /* \"#utility.yul\":10109:10122   */\n      mul\n        /* \"#utility.yul\":10080:10131   */\n      tag_82\n      jump\t// in\n    tag_198:\n        /* \"#utility.yul\":10076:10132   */\n      not\n        /* \"#utility.yul\":10161:10165   */\n      dup1\n        /* \"#utility.yul\":10155:10159   */\n      dup4\n        /* \"#utility.yul\":10151:10166   */\n      and\n        /* \"#utility.yul\":10141:10166   */\n      swap2\n      pop\n        /* \"#utility.yul\":10054:10172   */\n      pop\n        /* \"#utility.yul\":10003:10172   */\n      swap3\n      swap2\n      pop\n      pop\n      jump\t// out\n        /* \"#utility.yul\":10177:10472   */\n    tag_84:\n        /* \"#utility.yul\":10253:10257   */\n      0x00\n        /* \"#utility.yul\":10399:10428   */\n      tag_200\n        /* \"#utility.yul\":10424:10427   */\n      dup4\n        /* \"#utility.yul\":10418:10422   */\n      dup4\n        /* \"#utility.yul\":10399:10428   */\n      tag_83\n      jump\t// in\n    tag_200:\n        /* \"#utility.yul\":10391:10428   */\n      swap2\n      pop\n        /* \"#utility.yul\":10461:10464   */\n      dup3\n        /* \"#utility.yul\":10458:10459   */\n      0x02\n        /* \"#utility.yul\":10454:10465   */\n      mul\n        /* \"#utility.yul\":10448:10452   */\n      dup3\n        /* \"#utility.yul\":10445:10466   */\n      or\n        /* \"#utility.yul\":10437:10466   */\n      swap1\n      pop\n        /* \"#utility.yul\":10177:10472   */\n      swap3\n      swap2\n      pop\n      pop\n      jump\t// out\n        /* \"#utility.yul\":10477:11872   */\n    tag_24:\n        /* \"#utility.yul\":10594:10631   */\n      tag_202\n        /* \"#utility.yul\":10627:10630   */\n      dup3\n        /* \"#utility.yul\":10594:10631   */\n      tag_63\n      jump\t// in\n    tag_202:\n        /* \"#utility.yul\":10696:10714   */\n      0xffffffffffffffff\n        /* \"#utility.yul\":10688:10694   */\n      dup2\n        /* \"#utility.yul\":10685:10715   */\n      gt\n        /* \"#utility.yul\":10682:10738   */\n      iszero\n      tag_203\n      jumpi\n        /* \"#utility.yul\":10718:10736   */\n      tag_204\n      tag_55\n      jump\t// in\n    tag_204:\n        /* \"#utility.yul\":10682:10738   */\n    tag_203:\n        /* \"#utility.yul\":10762:10800   */\n      tag_205\n        /* \"#utility.yul\":10794:10798   */\n      dup3\n        /* \"#utility.yul\":10788:10799   */\n      sload\n        /* \"#utility.yul\":10762:10800   */\n      tag_31\n      jump\t// in\n    tag_205:\n        /* \"#utility.yul\":10847:10914   */\n      tag_206\n        /* \"#utility.yul\":10907:10913   */\n      dup3\n        /* \"#utility.yul\":10899:10905   */\n      dup3\n        /* \"#utility.yul\":10893:10897   */\n      dup6\n        /* \"#utility.yul\":10847:10914   */\n      tag_81\n      jump\t// in\n    tag_206:\n        /* \"#utility.yul\":10941:10942   */\n      0x00\n        /* \"#utility.yul\":10965:10969   */\n      0x20\n        /* \"#utility.yul\":10952:10969   */\n      swap1\n      pop\n        /* \"#utility.yul\":10997:10999   */\n      0x1f\n        /* \"#utility.yul\":10989:10995   */\n      dup4\n        /* \"#utility.yul\":10986:11000   */\n      gt\n        /* \"#utility.yul\":11014:11015   */\n      0x01\n        /* \"#utility.yul\":11009:11627   */\n      dup2\n      eq\n      tag_208\n      jumpi\n        /* \"#utility.yul\":11671:11672   */\n      0x00\n        /* \"#utility.yul\":11688:11694   */\n      dup5\n        /* \"#utility.yul\":11685:11762   */\n      iszero\n      tag_209\n      jumpi\n        /* \"#utility.yul\":11737:11746   */\n      dup3\n        /* \"#utility.yul\":11732:11735   */\n      dup8\n        /* \"#utility.yul\":11728:11747   */\n      add\n        /* \"#utility.yul\":11722:11748   */\n      mload\n        /* \"#utility.yul\":11713:11748   */\n      swap1\n      pop\n        /* \"#utility.yul\":11685:11762   */\n    tag_209:\n        /* \"#utility.yul\":11788:11855   */\n      tag_210\n        /* \"#utility.yul\":11848:11854   */\n      dup6\n        /* \"#utility.yul\":11841:11846   */\n      dup3\n        /* \"#utility.yul\":11788:11855   */\n      tag_84\n      jump\t// in\n    tag_210:\n        /* \"#utility.yul\":11782:11786   */\n      dup7\n        /* \"#utility.yul\":11775:11856   */\n      sstore\n        /* \"#utility.yul\":11644:11866   */\n      pop\n        /* \"#utility.yul\":10979:11866   */\n      jump(tag_207)\n        /* \"#utility.yul\":11009:11627   */\n    tag_208:\n        /* \"#utility.yul\":11061:11065   */\n      0x1f\n        /* \"#utility.yul\":11057:11066   */\n      not\n        /* \"#utility.yul\":11049:11055   */\n      dup5\n        /* \"#utility.yul\":11045:11067   */\n      and\n        /* \"#utility.yul\":11095:11132   */\n      tag_211\n        /* \"#utility.yul\":11127:11131   */\n      dup7\n        /* \"#utility.yul\":11095:11132   */\n      tag_70\n      jump\t// in\n    tag_211:\n        /* \"#utility.yul\":11154:11155   */\n      0x00\n        /* \"#utility.yul\":11168:11376   */\n    tag_212:\n        /* \"#utility.yul\":11182:11189   */\n      dup3\n        /* \"#utility.yul\":11179:11180   */\n      dup2\n        /* \"#utility.yul\":11176:11190   */\n      lt\n        /* \"#utility.yul\":11168:11376   */\n      iszero\n      tag_214\n      jumpi\n        /* \"#utility.yul\":11261:11270   */\n      dup5\n        /* \"#utility.yul\":11256:11259   */\n      dup10\n        /* \"#utility.yul\":11252:11271   */\n      add\n        /* \"#utility.yul\":11246:11272   */\n      mload\n        /* \"#utility.yul\":11238:11244   */\n      dup3\n        /* \"#utility.yul\":11231:11273   */\n      sstore\n        /* \"#utility.yul\":11312:11313   */\n      0x01\n        /* \"#utility.yul\":11304:11310   */\n      dup3\n        /* \"#utility.yul\":11300:11314   */\n      add\n        /* \"#utility.yul\":11290:11314   */\n      swap2\n      pop\n        /* \"#utility.yul\":11359:11361   */\n      0x20\n        /* \"#utility.yul\":11348:11357   */\n      dup6\n        /* \"#utility.yul\":11344:11362   */\n      add\n        /* \"#utility.yul\":11331:11362   */\n      swap5\n      pop\n        /* \"#utility.yul\":11205:11209   */\n      0x20\n        /* \"#utility.yul\":11202:11203   */\n      dup2\n        /* \"#utility.yul\":11198:11210   */\n      add\n        /* \"#utility.yul\":11193:11210   */\n      swap1\n      pop\n        /* \"#utility.yul\":11168:11376   */\n      jump(tag_212)\n    tag_214:\n        /* \"#utility.yul\":11404:11410   */\n      dup7\n        /* \"#utility.yul\":11395:11402   */\n      dup4\n        /* \"#utility.yul\":11392:11411   */\n      lt\n        /* \"#utility.yul\":11389:11568   */\n      iszero\n      tag_215\n      jumpi\n        /* \"#utility.yul\":11462:11471   */\n      dup5\n        /* \"#utility.yul\":11457:11460   */\n      dup10\n        /* \"#utility.yul\":11453:11472   */\n      add\n        /* \"#utility.yul\":11447:11473   */\n      mload\n        /* \"#utility.yul\":11505:11553   */\n      tag_216\n        /* \"#utility.yul\":11547:11551   */\n      0x1f\n        /* \"#utility.yul\":11539:11545   */\n      dup10\n        /* \"#utility.yul\":11535:11552   */\n      and\n        /* \"#utility.yul\":11524:11533   */\n      dup3\n        /* \"#utility.yul\":11505:11553   */\n      tag_83\n      jump\t// in\n    tag_216:\n        /* \"#utility.yul\":11497:11503   */\n      dup4\n        /* \"#utility.yul\":11490:11554   */\n      sstore\n        /* \"#utility.yul\":11412:11568   */\n      pop\n        /* \"#utility.yul\":11389:11568   */\n    tag_215:\n        /* \"#utility.yul\":11614:11615   */\n      0x01\n        /* \"#utility.yul\":11610:11611   */\n      0x02\n        /* \"#utility.yul\":11602:11608   */\n      dup9\n        /* \"#utility.yul\":11598:11612   */\n      mul\n        /* \"#utility.yul\":11594:11616   */\n      add\n        /* \"#utility.yul\":11588:11592   */\n      dup9\n        /* \"#utility.yul\":11581:11617   */\n      sstore\n        /* \"#utility.yul\":11016:11627   */\n      pop\n      pop\n      pop\n        /* \"#utility.yul\":10979:11866   */\n    tag_207:\n      pop\n        /* \"#utility.yul\":10569:11872   */\n      pop\n      pop\n      pop\n        /* \"#utility.yul\":10477:11872   */\n      pop\n      pop\n      jump\t// out\n        /* \"#utility.yul\":11878:12050   */\n    tag_85:\n        /* \"#utility.yul\":12018:12042   */\n      0x53747564656e7420646f6573206e6f7420657869737400000000000000000000\n        /* \"#utility.yul\":12014:12015   */\n      0x00\n        /* \"#utility.yul\":12006:12012   */\n      dup3\n        /* \"#utility.yul\":12002:12016   */\n      add\n        /* \"#utility.yul\":11995:12043   */\n      mstore\n        /* \"#utility.yul\":11878:12050   */\n      pop\n      jump\t// out\n        /* \"#utility.yul\":12056:12422   */\n    tag_86:\n        /* \"#utility.yul\":12198:12201   */\n      0x00\n        /* \"#utility.yul\":12219:12286   */\n      tag_219\n        /* \"#utility.yul\":12283:12285   */\n      0x16\n        /* \"#utility.yul\":12278:12281   */\n      dup4\n        /* \"#utility.yul\":12219:12286   */\n      tag_64\n      jump\t// in\n    tag_219:\n        /* \"#utility.yul\":12212:12286   */\n      swap2\n      pop\n        /* \"#utility.yul\":12295:12388   */\n      tag_220\n        /* \"#utility.yul\":12384:12387   */\n      dup3\n        /* \"#utility.yul\":12295:12388   */\n      tag_85\n      jump\t// in\n    tag_220:\n        /* \"#utility.yul\":12413:12415   */\n      0x20\n        /* \"#utility.yul\":12408:12411   */\n      dup3\n        /* \"#utility.yul\":12404:12416   */\n      add\n        /* \"#utility.yul\":12397:12416   */\n      swap1\n      pop\n        /* \"#utility.yul\":12056:12422   */\n      swap2\n      swap1\n      pop\n      jump\t// out\n        /* \"#utility.yul\":12428:12847   */\n    tag_29:\n        /* \"#utility.yul\":12594:12598   */\n      0x00\n        /* \"#utility.yul\":12632:12634   */\n      0x20\n        /* \"#utility.yul\":12621:12630   */\n      dup3\n        /* \"#utility.yul\":12617:12635   */\n      add\n        /* \"#utility.yul\":12609:12635   */\n      swap1\n      pop\n        /* \"#utility.yul\":12681:12690   */\n      dup2\n        /* \"#utility.yul\":12675:12679   */\n      dup2\n        /* \"#utility.yul\":12671:12691   */\n      sub\n        /* \"#utility.yul\":12667:12668   */\n      0x00\n        /* \"#utility.yul\":12656:12665   */\n      dup4\n        /* \"#utility.yul\":12652:12669   */\n      add\n        /* \"#utility.yul\":12645:12692   */\n      mstore\n        /* \"#utility.yul\":12709:12840   */\n      tag_222\n        /* \"#utility.yul\":12835:12839   */\n      dup2\n        /* \"#utility.yul\":12709:12840   */\n      tag_86\n      jump\t// in\n    tag_222:\n        /* \"#utility.yul\":12701:12840   */\n      swap1\n      pop\n        /* \"#utility.yul\":12428:12847   */\n      swap2\n      swap1\n      pop\n      jump\t// out\n\n    auxdata: 0xa2646970667358221220c60510e8cd05d2bebe093d3e2d7e12511e1781012d53cd72e0f278e94f1b6b7664736f6c634300081e0033\n}\n",
				"bytecode": {
					"linkReferences": {},
					"object": "6080604052348015600e575f5ffd5b50610b208061001c5f395ff3fe608060405234801561000f575f5ffd5b506004361061003f575f3560e01c80635900fe9f14610043578063642f91631461005f578063c11e15e414610092575b5f5ffd5b61005d600480360381019061005891906105c7565b6100ae565b005b61007960048036038101906100749190610663565b6101ae565b60405161008994939291906106fd565b60405180910390f35b6100ac60048036038101906100a791906105c7565b6103a1565b005b5f5f8581526020019081526020015f206004015f9054906101000a900460ff161561010e576040517f08c379a000000000000000000000000000000000000000000000000000000000815260040161010590610798565b60405180910390fd5b6040518060a00160405280858152602001848152602001838152602001828152602001600115158152505f5f8681526020019081526020015f205f820151815f0155602082015181600101908161016591906109b3565b5060408201518160020155606082015181600301908161018591906109b3565b506080820151816004015f6101000a81548160ff02191690831515021790555090505050505050565b5f60605f60605f5f8681526020019081526020015f206004015f9054906101000a900460ff16610213576040517f08c379a000000000000000000000000000000000000000000000000000000000815260040161020a90610acc565b60405180910390fd5b5f5f5f8781526020019081526020015f206040518060a00160405290815f8201548152602001600182018054610248906107e3565b80601f0160208091040260200160405190810160405280929190818152602001828054610274906107e3565b80156102bf5780601f10610296576101008083540402835291602001916102bf565b820191905f5260205f20905b8154815290600101906020018083116102a257829003601f168201915b50505050508152602001600282015481526020016003820180546102e2906107e3565b80601f016020809104026020016040519081016040528092919081815260200182805461030e906107e3565b80156103595780601f1061033057610100808354040283529160200191610359565b820191905f5260205f20905b81548152906001019060200180831161033c57829003601f168201915b50505050508152602001600482015f9054906101000a900460ff1615151515815250509050805f01518160200151826040015183606001519450945094509450509193509193565b5f5f8581526020019081526020015f206004015f9054906101000a900460ff16610400576040517f08c379a00000000000000000000000000000000000000000000000000000000081526004016103f790610acc565b60405180910390fd5b5f5f5f8681526020019081526020015f2090508381600101908161042491906109b3565b508281600201819055508181600301908161043f91906109b3565b505050505050565b5f604051905090565b5f5ffd5b5f5ffd5b5f819050919050565b61046a81610458565b8114610474575f5ffd5b50565b5f8135905061048581610461565b92915050565b5f5ffd5b5f5ffd5b5f601f19601f8301169050919050565b7f4e487b71000000000000000000000000000000000000000000000000000000005f52604160045260245ffd5b6104d982610493565b810181811067ffffffffffffffff821117156104f8576104f76104a3565b5b80604052505050565b5f61050a610447565b905061051682826104d0565b919050565b5f67ffffffffffffffff821115610535576105346104a3565b5b61053e82610493565b9050602081019050919050565b828183375f83830152505050565b5f61056b6105668461051b565b610501565b9050828152602081018484840111156105875761058661048f565b5b61059284828561054b565b509392505050565b5f82601f8301126105ae576105ad61048b565b5b81356105be848260208601610559565b91505092915050565b5f5f5f5f608085870312156105df576105de610450565b5b5f6105ec87828801610477565b945050602085013567ffffffffffffffff81111561060d5761060c610454565b5b6106198782880161059a565b935050604061062a87828801610477565b925050606085013567ffffffffffffffff81111561064b5761064a610454565b5b6106578782880161059a565b91505092959194509250565b5f6020828403121561067857610677610450565b5b5f61068584828501610477565b91505092915050565b61069781610458565b82525050565b5f81519050919050565b5f82825260208201905092915050565b8281835e5f83830152505050565b5f6106cf8261069d565b6106d981856106a7565b93506106e98185602086016106b7565b6106f281610493565b840191505092915050565b5f6080820190506107105f83018761068e565b818103602083015261072281866106c5565b9050610731604083018561068e565b818103606083015261074381846106c5565b905095945050505050565b7f53747564656e7420616c726561647920657869737473000000000000000000005f82015250565b5f6107826016836106a7565b915061078d8261074e565b602082019050919050565b5f6020820190508181035f8301526107af81610776565b9050919050565b7f4e487b71000000000000000000000000000000000000000000000000000000005f52602260045260245ffd5b5f60028204905060018216806107fa57607f821691505b60208210810361080d5761080c6107b6565b5b50919050565b5f819050815f5260205f209050919050565b5f6020601f8301049050919050565b5f82821b905092915050565b5f6008830261086f7fffffffffffffffffffffffffffffffffffffffffffffffffffffffffffffffff82610834565b6108798683610834565b95508019841693508086168417925050509392505050565b5f819050919050565b5f6108b46108af6108aa84610458565b610891565b610458565b9050919050565b5f819050919050565b6108cd8361089a565b6108e16108d9826108bb565b848454610840565b825550505050565b5f5f905090565b6108f86108e9565b6109038184846108c4565b505050565b5b818110156109265761091b5f826108f0565b600181019050610909565b5050565b601f82111561096b5761093c81610813565b61094584610825565b81016020851015610954578190505b61096861096085610825565b830182610908565b50505b505050565b5f82821c905092915050565b5f61098b5f1984600802610970565b1980831691505092915050565b5f6109a3838361097c565b9150826002028217905092915050565b6109bc8261069d565b67ffffffffffffffff8111156109d5576109d46104a3565b5b6109df82546107e3565b6109ea82828561092a565b5f60209050601f831160018114610a1b575f8415610a09578287015190505b610a138582610998565b865550610a7a565b601f198416610a2986610813565b5f5b82811015610a5057848901518255600182019150602085019450602081019050610a2b565b86831015610a6d5784890151610a69601f89168261097c565b8355505b6001600288020188555050505b505050505050565b7f53747564656e7420646f6573206e6f74206578697374000000000000000000005f82015250565b5f610ab66016836106a7565b9150610ac182610a82565b602082019050919050565b5f6020820190508181035f830152610ae381610aaa565b905091905056fea2646970667358221220c60510e8cd05d2bebe093d3e2d7e12511e1781012d53cd72e0f278e94f1b6b7664736f6c634300081e0033",
					"opcodes": "PUSH1 0x80 PUSH1 0x40 MSTORE CALLVALUE DUP1 ISZERO PUSH1 0xE JUMPI PUSH0 PUSH0 REVERT JUMPDEST POP PUSH2 0xB20 DUP1 PUSH2 0x1C PUSH0 CODECOPY PUSH0 RETURN INVALID PUSH1 0x80 PUSH1 0x40 MSTORE CALLVALUE DUP1 ISZERO PUSH2 0xF JUMPI PUSH0 PUSH0 REVERT JUMPDEST POP PUSH1 0x4 CALLDATASIZE LT PUSH2 0x3F JUMPI PUSH0 CALLDATALOAD PUSH1 0xE0 SHR DUP1 PUSH4 0x5900FE9F EQ PUSH2 0x43 JUMPI DUP1 PUSH4 0x642F9163 EQ PUSH2 0x5F JUMPI DUP1 PUSH4 0xC11E15E4 EQ PUSH2 0x92 JUMPI JUMPDEST PUSH0 PUSH0 REVERT JUMPDEST PUSH2 0x5D PUSH1 0x4 DUP1 CALLDATASIZE SUB DUP2 ADD SWAP1 PUSH2 0x58 SWAP2 SWAP1 PUSH2 0x5C7 JUMP JUMPDEST PUSH2 0xAE JUMP JUMPDEST STOP JUMPDEST PUSH2 0x79 PUSH1 0x4 DUP1 CALLDATASIZE SUB DUP2 ADD SWAP1 PUSH2 0x74 SWAP2 SWAP1 PUSH2 0x663 JUMP JUMPDEST PUSH2 0x1AE JUMP JUMPDEST PUSH1 0x40 MLOAD PUSH2 0x89 SWAP5 SWAP4 SWAP3 SWAP2 SWAP1 PUSH2 0x6FD JUMP JUMPDEST PUSH1 0x40 MLOAD DUP1 SWAP2 SUB SWAP1 RETURN JUMPDEST PUSH2 0xAC PUSH1 0x4 DUP1 CALLDATASIZE SUB DUP2 ADD SWAP1 PUSH2 0xA7 SWAP2 SWAP1 PUSH2 0x5C7 JUMP JUMPDEST PUSH2 0x3A1 JUMP JUMPDEST STOP JUMPDEST PUSH0 PUSH0 DUP6 DUP2 MSTORE PUSH1 0x20 ADD SWAP1 DUP2 MSTORE PUSH1 0x20 ADD PUSH0 KECCAK256 PUSH1 0x4 ADD PUSH0 SWAP1 SLOAD SWAP1 PUSH2 0x100 EXP SWAP1 DIV PUSH1 0xFF AND ISZERO PUSH2 0x10E JUMPI PUSH1 0x40 MLOAD PUSH32 0x8C379A000000000000000000000000000000000000000000000000000000000 DUP2 MSTORE PUSH1 0x4 ADD PUSH2 0x105 SWAP1 PUSH2 0x798 JUMP JUMPDEST PUSH1 0x40 MLOAD DUP1 SWAP2 SUB SWAP1 REVERT JUMPDEST PUSH1 0x40 MLOAD DUP1 PUSH1 0xA0 ADD PUSH1 0x40 MSTORE DUP1 DUP6 DUP2 MSTORE PUSH1 0x20 ADD DUP5 DUP2 MSTORE PUSH1 0x20 ADD DUP4 DUP2 MSTORE PUSH1 0x20 ADD DUP3 DUP2 MSTORE PUSH1 0x20 ADD PUSH1 0x1 ISZERO ISZERO DUP2 MSTORE POP PUSH0 PUSH0 DUP7 DUP2 MSTORE PUSH1 0x20 ADD SWAP1 DUP2 MSTORE PUSH1 0x20 ADD PUSH0 KECCAK256 PUSH0 DUP3 ADD MLOAD DUP2 PUSH0 ADD SSTORE PUSH1 0x20 DUP3 ADD MLOAD DUP2 PUSH1 0x1 ADD SWAP1 DUP2 PUSH2 0x165 SWAP2 SWAP1 PUSH2 0x9B3 JUMP JUMPDEST POP PUSH1 0x40 DUP3 ADD MLOAD DUP2 PUSH1 0x2 ADD SSTORE PUSH1 0x60 DUP3 ADD MLOAD DUP2 PUSH1 0x3 ADD SWAP1 DUP2 PUSH2 0x185 SWAP2 SWAP1 PUSH2 0x9B3 JUMP JUMPDEST POP PUSH1 0x80 DUP3 ADD MLOAD DUP2 PUSH1 0x4 ADD PUSH0 PUSH2 0x100 EXP DUP2 SLOAD DUP2 PUSH1 0xFF MUL NOT AND SWAP1 DUP4 ISZERO ISZERO MUL OR SWAP1 SSTORE POP SWAP1 POP POP POP POP POP POP JUMP JUMPDEST PUSH0 PUSH1 0x60 PUSH0 PUSH1 0x60 PUSH0 PUSH0 DUP7 DUP2 MSTORE PUSH1 0x20 ADD SWAP1 DUP2 MSTORE PUSH1 0x20 ADD PUSH0 KECCAK256 PUSH1 0x4 ADD PUSH0 SWAP1 SLOAD SWAP1 PUSH2 0x100 EXP SWAP1 DIV PUSH1 0xFF AND PUSH2 0x213 JUMPI PUSH1 0x40 MLOAD PUSH32 0x8C379A000000000000000000000000000000000000000000000000000000000 DUP2 MSTORE PUSH1 0x4 ADD PUSH2 0x20A SWAP1 PUSH2 0xACC JUMP JUMPDEST PUSH1 0x40 MLOAD DUP1 SWAP2 SUB SWAP1 REVERT JUMPDEST PUSH0 PUSH0 PUSH0 DUP8 DUP2 MSTORE PUSH1 0x20 ADD SWAP1 DUP2 MSTORE PUSH1 0x20 ADD PUSH0 KECCAK256 PUSH1 0x40 MLOAD DUP1 PUSH1 0xA0 ADD PUSH1 0x40 MSTORE SWAP1 DUP2 PUSH0 DUP3 ADD SLOAD DUP2 MSTORE PUSH1 0x20 ADD PUSH1 0x1 DUP3 ADD DUP1 SLOAD PUSH2 0x248 SWAP1 PUSH2 0x7E3 JUMP JUMPDEST DUP1 PUSH1 0x1F ADD PUSH1 0x20 DUP1 SWAP2 DIV MUL PUSH1 0x20 ADD PUSH1 0x40 MLOAD SWAP1 DUP2 ADD PUSH1 0x40 MSTORE DUP1 SWAP3 SWAP2 SWAP1 DUP2 DUP2 MSTORE PUSH1 0x20 ADD DUP3 DUP1 SLOAD PUSH2 0x274 SWAP1 PUSH2 0x7E3 JUMP JUMPDEST DUP1 ISZERO PUSH2 0x2BF JUMPI DUP1 PUSH1 0x1F LT PUSH2 0x296 JUMPI PUSH2 0x100 DUP1 DUP4 SLOAD DIV MUL DUP4 MSTORE SWAP2 PUSH1 0x20 ADD SWAP2 PUSH2 0x2BF JUMP JUMPDEST DUP3 ADD SWAP2 SWAP1 PUSH0 MSTORE PUSH1 0x20 PUSH0 KECCAK256 SWAP1 JUMPDEST DUP2 SLOAD DUP2 MSTORE SWAP1 PUSH1 0x1 ADD SWAP1 PUSH1 0x20 ADD DUP1 DUP4 GT PUSH2 0x2A2 JUMPI DUP3 SWAP1 SUB PUSH1 0x1F AND DUP3 ADD SWAP2 JUMPDEST POP POP POP POP POP DUP2 MSTORE PUSH1 0x20 ADD PUSH1 0x2 DUP3 ADD SLOAD DUP2 MSTORE PUSH1 0x20 ADD PUSH1 0x3 DUP3 ADD DUP1 SLOAD PUSH2 0x2E2 SWAP1 PUSH2 0x7E3 JUMP JUMPDEST DUP1 PUSH1 0x1F ADD PUSH1 0x20 DUP1 SWAP2 DIV MUL PUSH1 0x20 ADD PUSH1 0x40 MLOAD SWAP1 DUP2 ADD PUSH1 0x40 MSTORE DUP1 SWAP3 SWAP2 SWAP1 DUP2 DUP2 MSTORE PUSH1 0x20 ADD DUP3 DUP1 SLOAD PUSH2 0x30E SWAP1 PUSH2 0x7E3 JUMP JUMPDEST DUP1 ISZERO PUSH2 0x359 JUMPI DUP1 PUSH1 0x1F LT PUSH2 0x330 JUMPI PUSH2 0x100 DUP1 DUP4 SLOAD DIV MUL DUP4 MSTORE SWAP2 PUSH1 0x20 ADD SWAP2 PUSH2 0x359 JUMP JUMPDEST DUP3 ADD SWAP2 SWAP1 PUSH0 MSTORE PUSH1 0x20 PUSH0 KECCAK256 SWAP1 JUMPDEST DUP2 SLOAD DUP2 MSTORE SWAP1 PUSH1 0x1 ADD SWAP1 PUSH1 0x20 ADD DUP1 DUP4 GT PUSH2 0x33C JUMPI DUP3 SWAP1 SUB PUSH1 0x1F AND DUP3 ADD SWAP2 JUMPDEST POP POP POP POP POP DUP2 MSTORE PUSH1 0x20 ADD PUSH1 0x4 DUP3 ADD PUSH0 SWAP1 SLOAD SWAP1 PUSH2 0x100 EXP SWAP1 DIV PUSH1 0xFF AND ISZERO ISZERO ISZERO ISZERO DUP2 MSTORE POP POP SWAP1 POP DUP1 PUSH0 ADD MLOAD DUP2 PUSH1 0x20 ADD MLOAD DUP3 PUSH1 0x40 ADD MLOAD DUP4 PUSH1 0x60 ADD MLOAD SWAP5 POP SWAP5 POP SWAP5 POP SWAP5 POP POP SWAP2 SWAP4 POP SWAP2 SWAP4 JUMP JUMPDEST PUSH0 PUSH0 DUP6 DUP2 MSTORE PUSH1 0x20 ADD SWAP1 DUP2 MSTORE PUSH1 0x20 ADD PUSH0 KECCAK256 PUSH1 0x4 ADD PUSH0 SWAP1 SLOAD SWAP1 PUSH2 0x100 EXP SWAP1 DIV PUSH1 0xFF AND PUSH2 0x400 JUMPI PUSH1 0x40 MLOAD PUSH32 0x8C379A000000000000000000000000000000000000000000000000000000000 DUP2 MSTORE PUSH1 0x4 ADD PUSH2 0x3F7 SWAP1 PUSH2 0xACC JUMP JUMPDEST PUSH1 0x40 MLOAD DUP1 SWAP2 SUB SWAP1 REVERT JUMPDEST PUSH0 PUSH0 PUSH0 DUP7 DUP2 MSTORE PUSH1 0x20 ADD SWAP1 DUP2 MSTORE PUSH1 0x20 ADD PUSH0 KECCAK256 SWAP1 POP DUP4 DUP2 PUSH1 0x1 ADD SWAP1 DUP2 PUSH2 0x424 SWAP2 SWAP1 PUSH2 0x9B3 JUMP JUMPDEST POP DUP3 DUP2 PUSH1 0x2 ADD DUP2 SWAP1 SSTORE POP DUP2 DUP2 PUSH1 0x3 ADD SWAP1 DUP2 PUSH2 0x43F SWAP2 SWAP1 PUSH2 0x9B3 JUMP JUMPDEST POP POP POP POP POP POP JUMP JUMPDEST PUSH0 PUSH1 0x40 MLOAD SWAP1 POP SWAP1 JUMP JUMPDEST PUSH0 PUSH0 REVERT JUMPDEST PUSH0 PUSH0 REVERT JUMPDEST PUSH0 DUP2 SWAP1 POP SWAP2 SWAP1 POP JUMP JUMPDEST PUSH2 0x46A DUP2 PUSH2 0x458 JUMP JUMPDEST DUP2 EQ PUSH2 0x474 JUMPI PUSH0 PUSH0 REVERT JUMPDEST POP JUMP JUMPDEST PUSH0 DUP2 CALLDATALOAD SWAP1 POP PUSH2 0x485 DUP2 PUSH2 0x461 JUMP JUMPDEST SWAP3 SWAP2 POP POP JUMP JUMPDEST PUSH0 PUSH0 REVERT JUMPDEST PUSH0 PUSH0 REVERT JUMPDEST PUSH0 PUSH1 0x1F NOT PUSH1 0x1F DUP4 ADD AND SWAP1 POP SWAP2 SWAP1 POP JUMP JUMPDEST PUSH32 0x4E487B7100000000000000000000000000000000000000000000000000000000 PUSH0 MSTORE PUSH1 0x41 PUSH1 0x4 MSTORE PUSH1 0x24 PUSH0 REVERT JUMPDEST PUSH2 0x4D9 DUP3 PUSH2 0x493 JUMP JUMPDEST DUP2 ADD DUP2 DUP2 LT PUSH8 0xFFFFFFFFFFFFFFFF DUP3 GT OR ISZERO PUSH2 0x4F8 JUMPI PUSH2 0x4F7 PUSH2 0x4A3 JUMP JUMPDEST JUMPDEST DUP1 PUSH1 0x40 MSTORE POP POP POP JUMP JUMPDEST PUSH0 PUSH2 0x50A PUSH2 0x447 JUMP JUMPDEST SWAP1 POP PUSH2 0x516 DUP3 DUP3 PUSH2 0x4D0 JUMP JUMPDEST SWAP2 SWAP1 POP JUMP JUMPDEST PUSH0 PUSH8 0xFFFFFFFFFFFFFFFF DUP3 GT ISZERO PUSH2 0x535 JUMPI PUSH2 0x534 PUSH2 0x4A3 JUMP JUMPDEST JUMPDEST PUSH2 0x53E DUP3 PUSH2 0x493 JUMP JUMPDEST SWAP1 POP PUSH1 0x20 DUP2 ADD SWAP1 POP SWAP2 SWAP1 POP JUMP JUMPDEST DUP3 DUP2 DUP4 CALLDATACOPY PUSH0 DUP4 DUP4 ADD MSTORE POP POP POP JUMP JUMPDEST PUSH0 PUSH2 0x56B PUSH2 0x566 DUP5 PUSH2 0x51B JUMP JUMPDEST PUSH2 0x501 JUMP JUMPDEST SWAP1 POP DUP3 DUP2 MSTORE PUSH1 0x20 DUP2 ADD DUP5 DUP5 DUP5 ADD GT ISZERO PUSH2 0x587 JUMPI PUSH2 0x586 PUSH2 0x48F JUMP JUMPDEST JUMPDEST PUSH2 0x592 DUP5 DUP3 DUP6 PUSH2 0x54B JUMP JUMPDEST POP SWAP4 SWAP3 POP POP POP JUMP JUMPDEST PUSH0 DUP3 PUSH1 0x1F DUP4 ADD SLT PUSH2 0x5AE JUMPI PUSH2 0x5AD PUSH2 0x48B JUMP JUMPDEST JUMPDEST DUP2 CALLDATALOAD PUSH2 0x5BE DUP5 DUP3 PUSH1 0x20 DUP7 ADD PUSH2 0x559 JUMP JUMPDEST SWAP2 POP POP SWAP3 SWAP2 POP POP JUMP JUMPDEST PUSH0 PUSH0 PUSH0 PUSH0 PUSH1 0x80 DUP6 DUP8 SUB SLT ISZERO PUSH2 0x5DF JUMPI PUSH2 0x5DE PUSH2 0x450 JUMP JUMPDEST JUMPDEST PUSH0 PUSH2 0x5EC DUP8 DUP3 DUP9 ADD PUSH2 0x477 JUMP JUMPDEST SWAP5 POP POP PUSH1 0x20 DUP6 ADD CALLDATALOAD PUSH8 0xFFFFFFFFFFFFFFFF DUP2 GT ISZERO PUSH2 0x60D JUMPI PUSH2 0x60C PUSH2 0x454 JUMP JUMPDEST JUMPDEST PUSH2 0x619 DUP8 DUP3 DUP9 ADD PUSH2 0x59A JUMP JUMPDEST SWAP4 POP POP PUSH1 0x40 PUSH2 0x62A DUP8 DUP3 DUP9 ADD PUSH2 0x477 JUMP JUMPDEST SWAP3 POP POP PUSH1 0x60 DUP6 ADD CALLDATALOAD PUSH8 0xFFFFFFFFFFFFFFFF DUP2 GT ISZERO PUSH2 0x64B JUMPI PUSH2 0x64A PUSH2 0x454 JUMP JUMPDEST JUMPDEST PUSH2 0x657 DUP8 DUP3 DUP9 ADD PUSH2 0x59A JUMP JUMPDEST SWAP2 POP POP SWAP3 SWAP6 SWAP2 SWAP5 POP SWAP3 POP JUMP JUMPDEST PUSH0 PUSH1 0x20 DUP3 DUP5 SUB SLT ISZERO PUSH2 0x678 JUMPI PUSH2 0x677 PUSH2 0x450 JUMP JUMPDEST JUMPDEST PUSH0 PUSH2 0x685 DUP5 DUP3 DUP6 ADD PUSH2 0x477 JUMP JUMPDEST SWAP2 POP POP SWAP3 SWAP2 POP POP JUMP JUMPDEST PUSH2 0x697 DUP2 PUSH2 0x458 JUMP JUMPDEST DUP3 MSTORE POP POP JUMP JUMPDEST PUSH0 DUP2 MLOAD SWAP1 POP SWAP2 SWAP1 POP JUMP JUMPDEST PUSH0 DUP3 DUP3 MSTORE PUSH1 0x20 DUP3 ADD SWAP1 POP SWAP3 SWAP2 POP POP JUMP JUMPDEST DUP3 DUP2 DUP4 MCOPY PUSH0 DUP4 DUP4 ADD MSTORE POP POP POP JUMP JUMPDEST PUSH0 PUSH2 0x6CF DUP3 PUSH2 0x69D JUMP JUMPDEST PUSH2 0x6D9 DUP2 DUP6 PUSH2 0x6A7 JUMP JUMPDEST SWAP4 POP PUSH2 0x6E9 DUP2 DUP6 PUSH1 0x20 DUP7 ADD PUSH2 0x6B7 JUMP JUMPDEST PUSH2 0x6F2 DUP2 PUSH2 0x493 JUMP JUMPDEST DUP5 ADD SWAP2 POP POP SWAP3 SWAP2 POP POP JUMP JUMPDEST PUSH0 PUSH1 0x80 DUP3 ADD SWAP1 POP PUSH2 0x710 PUSH0 DUP4 ADD DUP8 PUSH2 0x68E JUMP JUMPDEST DUP2 DUP2 SUB PUSH1 0x20 DUP4 ADD MSTORE PUSH2 0x722 DUP2 DUP7 PUSH2 0x6C5 JUMP JUMPDEST SWAP1 POP PUSH2 0x731 PUSH1 0x40 DUP4 ADD DUP6 PUSH2 0x68E JUMP JUMPDEST DUP2 DUP2 SUB PUSH1 0x60 DUP4 ADD MSTORE PUSH2 0x743 DUP2 DUP5 PUSH2 0x6C5 JUMP JUMPDEST SWAP1 POP SWAP6 SWAP5 POP POP POP POP POP JUMP JUMPDEST PUSH32 0x53747564656E7420616C72656164792065786973747300000000000000000000 PUSH0 DUP3 ADD MSTORE POP JUMP JUMPDEST PUSH0 PUSH2 0x782 PUSH1 0x16 DUP4 PUSH2 0x6A7 JUMP JUMPDEST SWAP2 POP PUSH2 0x78D DUP3 PUSH2 0x74E JUMP JUMPDEST PUSH1 0x20 DUP3 ADD SWAP1 POP SWAP2 SWAP1 POP JUMP JUMPDEST PUSH0 PUSH1 0x20 DUP3 ADD SWAP1 POP DUP2 DUP2 SUB PUSH0 DUP4 ADD MSTORE PUSH2 0x7AF DUP2 PUSH2 0x776 JUMP JUMPDEST SWAP1 POP SWAP2 SWAP1 POP JUMP JUMPDEST PUSH32 0x4E487B7100000000000000000000000000000000000000000000000000000000 PUSH0 MSTORE PUSH1 0x22 PUSH1 0x4 MSTORE PUSH1 0x24 PUSH0 REVERT JUMPDEST PUSH0 PUSH1 0x2 DUP3 DIV SWAP1 POP PUSH1 0x1 DUP3 AND DUP1 PUSH2 0x7FA JUMPI PUSH1 0x7F DUP3 AND SWAP2 POP JUMPDEST PUSH1 0x20 DUP3 LT DUP2 SUB PUSH2 0x80D JUMPI PUSH2 0x80C PUSH2 0x7B6 JUMP JUMPDEST JUMPDEST POP SWAP2 SWAP1 POP JUMP JUMPDEST PUSH0 DUP2 SWAP1 POP DUP2 PUSH0 MSTORE PUSH1 0x20 PUSH0 KECCAK256 SWAP1 POP SWAP2 SWAP1 POP JUMP JUMPDEST PUSH0 PUSH1 0x20 PUSH1 0x1F DUP4 ADD DIV SWAP1 POP SWAP2 SWAP1 POP JUMP JUMPDEST PUSH0 DUP3 DUP3 SHL SWAP1 POP SWAP3 SWAP2 POP POP JUMP JUMPDEST PUSH0 PUSH1 0x8 DUP4 MUL PUSH2 0x86F PUSH32 0xFFFFFFFFFFFFFFFFFFFFFFFFFFFFFFFFFFFFFFFFFFFFFFFFFFFFFFFFFFFFFFFF DUP3 PUSH2 0x834 JUMP JUMPDEST PUSH2 0x879 DUP7 DUP4 PUSH2 0x834 JUMP JUMPDEST SWAP6 POP DUP1 NOT DUP5 AND SWAP4 POP DUP1 DUP7 AND DUP5 OR SWAP3 POP POP POP SWAP4 SWAP3 POP POP POP JUMP JUMPDEST PUSH0 DUP2 SWAP1 POP SWAP2 SWAP1 POP JUMP JUMPDEST PUSH0 PUSH2 0x8B4 PUSH2 0x8AF PUSH2 0x8AA DUP5 PUSH2 0x458 JUMP JUMPDEST PUSH2 0x891 JUMP JUMPDEST PUSH2 0x458 JUMP JUMPDEST SWAP1 POP SWAP2 SWAP1 POP JUMP JUMPDEST PUSH0 DUP2 SWAP1 POP SWAP2 SWAP1 POP JUMP JUMPDEST PUSH2 0x8CD DUP4 PUSH2 0x89A JUMP JUMPDEST PUSH2 0x8E1 PUSH2 0x8D9 DUP3 PUSH2 0x8BB JUMP JUMPDEST DUP5 DUP5 SLOAD PUSH2 0x840 JUMP JUMPDEST DUP3 SSTORE POP POP POP POP JUMP JUMPDEST PUSH0 PUSH0 SWAP1 POP SWAP1 JUMP JUMPDEST PUSH2 0x8F8 PUSH2 0x8E9 JUMP JUMPDEST PUSH2 0x903 DUP2 DUP5 DUP5 PUSH2 0x8C4 JUMP JUMPDEST POP POP POP JUMP JUMPDEST JUMPDEST DUP2 DUP2 LT ISZERO PUSH2 0x926 JUMPI PUSH2 0x91B PUSH0 DUP3 PUSH2 0x8F0 JUMP JUMPDEST PUSH1 0x1 DUP2 ADD SWAP1 POP PUSH2 0x909 JUMP JUMPDEST POP POP JUMP JUMPDEST PUSH1 0x1F DUP3 GT ISZERO PUSH2 0x96B JUMPI PUSH2 0x93C DUP2 PUSH2 0x813 JUMP JUMPDEST PUSH2 0x945 DUP5 PUSH2 0x825 JUMP JUMPDEST DUP2 ADD PUSH1 0x20 DUP6 LT ISZERO PUSH2 0x954 JUMPI DUP2 SWAP1 POP JUMPDEST PUSH2 0x968 PUSH2 0x960 DUP6 PUSH2 0x825 JUMP JUMPDEST DUP4 ADD DUP3 PUSH2 0x908 JUMP JUMPDEST POP POP JUMPDEST POP POP POP JUMP JUMPDEST PUSH0 DUP3 DUP3 SHR SWAP1 POP SWAP3 SWAP2 POP POP JUMP JUMPDEST PUSH0 PUSH2 0x98B PUSH0 NOT DUP5 PUSH1 0x8 MUL PUSH2 0x970 JUMP JUMPDEST NOT DUP1 DUP4 AND SWAP2 POP POP SWAP3 SWAP2 POP POP JUMP JUMPDEST PUSH0 PUSH2 0x9A3 DUP4 DUP4 PUSH2 0x97C JUMP JUMPDEST SWAP2 POP DUP3 PUSH1 0x2 MUL DUP3 OR SWAP1 POP SWAP3 SWAP2 POP POP JUMP JUMPDEST PUSH2 0x9BC DUP3 PUSH2 0x69D JUMP JUMPDEST PUSH8 0xFFFFFFFFFFFFFFFF DUP2 GT ISZERO PUSH2 0x9D5 JUMPI PUSH2 0x9D4 PUSH2 0x4A3 JUMP JUMPDEST JUMPDEST PUSH2 0x9DF DUP3 SLOAD PUSH2 0x7E3 JUMP JUMPDEST PUSH2 0x9EA DUP3 DUP3 DUP6 PUSH2 0x92A JUMP JUMPDEST PUSH0 PUSH1 0x20 SWAP1 POP PUSH1 0x1F DUP4 GT PUSH1 0x1 DUP2 EQ PUSH2 0xA1B JUMPI PUSH0 DUP5 ISZERO PUSH2 0xA09 JUMPI DUP3 DUP8 ADD MLOAD SWAP1 POP JUMPDEST PUSH2 0xA13 DUP6 DUP3 PUSH2 0x998 JUMP JUMPDEST DUP7 SSTORE POP PUSH2 0xA7A JUMP JUMPDEST PUSH1 0x1F NOT DUP5 AND PUSH2 0xA29 DUP7 PUSH2 0x813 JUMP JUMPDEST PUSH0 JUMPDEST DUP3 DUP2 LT ISZERO PUSH2 0xA50 JUMPI DUP5 DUP10 ADD MLOAD DUP3 SSTORE PUSH1 0x1 DUP3 ADD SWAP2 POP PUSH1 0x20 DUP6 ADD SWAP5 POP PUSH1 0x20 DUP2 ADD SWAP1 POP PUSH2 0xA2B JUMP JUMPDEST DUP7 DUP4 LT ISZERO PUSH2 0xA6D JUMPI DUP5 DUP10 ADD MLOAD PUSH2 0xA69 PUSH1 0x1F DUP10 AND DUP3 PUSH2 0x97C JUMP JUMPDEST DUP4 SSTORE POP JUMPDEST PUSH1 0x1 PUSH1 0x2 DUP9 MUL ADD DUP9 SSTORE POP POP POP JUMPDEST POP POP POP POP POP POP JUMP JUMPDEST PUSH32 0x53747564656E7420646F6573206E6F7420657869737400000000000000000000 PUSH0 DUP3 ADD MSTORE POP JUMP JUMPDEST PUSH0 PUSH2 0xAB6 PUSH1 0x16 DUP4 PUSH2 0x6A7 JUMP JUMPDEST SWAP2 POP PUSH2 0xAC1 DUP3 PUSH2 0xA82 JUMP JUMPDEST PUSH1 0x20 DUP3 ADD SWAP1 POP SWAP2 SWAP1 POP JUMP JUMPDEST PUSH0 PUSH1 0x20 DUP3 ADD SWAP1 POP DUP2 DUP2 SUB PUSH0 DUP4 ADD MSTORE PUSH2 0xAE3 DUP2 PUSH2 0xAAA JUMP JUMPDEST SWAP1 POP SWAP2 SWAP1 POP JUMP INVALID LOG2 PUSH5 0x6970667358 0x22 SLT KECCAK256 0xC6 SDIV LT 0xE8 0xCD SDIV 0xD2 0xBE 0xBE MULMOD RETURNDATASIZE RETURNDATACOPY 0x2D PUSH31 0x12511E1781012D53CD72E0F278E94F1B6B7664736F6C634300081E00330000 "
				},
				"gasEstimates": {
					"creation": {
						"codeDepositCost": "569600",
						"executionCost": "598",
						"totalCost": "570198"
					},
					"external": {
						"addStudent(uint256,string,uint256,string)": "infinite",
						"getStudent(uint256)": "infinite",
						"updateStudent(uint256,string,uint256,string)": "infinite"
					}
				},
				"methodIdentifiers": {
					"addStudent(uint256,string,uint256,string)": "5900fe9f",
					"getStudent(uint256)": "642f9163",
					"updateStudent(uint256,string,uint256,string)": "c11e15e4"
				}
			},
			"storageLayout": {
				"storage": [
					{
						"astId": 17,
						"contract": "remix code/index.sol:StudentManager",
						"label": "students",
						"offset": 0,
						"slot": "0",
						"type": "t_mapping(t_uint256,t_struct(Student)12_storage)"
					}
				],
				"types": {
					"t_bool": {
						"encoding": "inplace",
						"label": "bool",
						"numberOfBytes": "1"
					},
					"t_mapping(t_uint256,t_struct(Student)12_storage)": {
						"encoding": "mapping",
						"key": "t_uint256",
						"label": "mapping(uint256 => struct StudentManager.Student)",
						"numberOfBytes": "32",
						"value": "t_struct(Student)12_storage"
					},
					"t_string_storage": {
						"encoding": "bytes",
						"label": "string",
						"numberOfBytes": "32"
					},
					"t_struct(Student)12_storage": {
						"encoding": "inplace",
						"label": "struct StudentManager.Student",
						"members": [
							{
								"astId": 3,
								"contract": "remix code/index.sol:StudentManager",
								"label": "id",
								"offset": 0,
								"slot": "0",
								"type": "t_uint256"
							},
							{
								"astId": 5,
								"contract": "remix code/index.sol:StudentManager",
								"label": "name",
								"offset": 0,
								"slot": "1",
								"type": "t_string_storage"
							},
							{
								"astId": 7,
								"contract": "remix code/index.sol:StudentManager",
								"label": "age",
								"offset": 0,
								"slot": "2",
								"type": "t_uint256"
							},
							{
								"astId": 9,
								"contract": "remix code/index.sol:StudentManager",
								"label": "department",
								"offset": 0,
								"slot": "3",
								"type": "t_string_storage"
							},
							{
								"astId": 11,
								"contract": "remix code/index.sol:StudentManager",
								"label": "exists",
								"offset": 0,
								"slot": "4",
								"type": "t_bool"
							}
						],
						"numberOfBytes": "160"
					},
					"t_uint256": {
						"encoding": "inplace",
						"label": "uint256",
						"numberOfBytes": "32"
					}
				}
			},
			"userdoc": {
				"kind": "user",
				"methods": {},
				"version": 1
			}
		}
	}
}